{
  "_format": "hh-sol-artifact-1",
  "contractName": "SportOracle",
  "sourceName": "contracts/SportOracle.sol",
  "abi": [
    {
      "anonymous": false,
      "inputs": [
        {
          "indexed": false,
          "internalType": "address",
          "name": "_address",
          "type": "address"
        }
      ],
      "name": "AdminAddressSet",
      "type": "event"
    },
    {
      "anonymous": false,
      "inputs": [
        {
          "indexed": false,
          "internalType": "address",
          "name": "previousAdmin",
          "type": "address"
        },
        {
          "indexed": false,
          "internalType": "address",
          "name": "newAdmin",
          "type": "address"
        }
      ],
      "name": "AdminChanged",
      "type": "event"
    },
    {
      "anonymous": false,
      "inputs": [
        {
          "indexed": true,
          "internalType": "address",
          "name": "beacon",
          "type": "address"
        }
      ],
      "name": "BeaconUpgraded",
      "type": "event"
    },
    {
      "anonymous": false,
      "inputs": [
        {
          "indexed": true,
          "internalType": "address",
          "name": "previousOwner",
          "type": "address"
        },
        {
          "indexed": true,
          "internalType": "address",
          "name": "newOwner",
          "type": "address"
        }
      ],
      "name": "OwnershipTransferred",
      "type": "event"
    },
    {
      "anonymous": false,
      "inputs": [
        {
          "indexed": true,
          "internalType": "bytes32",
          "name": "_eventId",
          "type": "bytes32"
        },
        {
          "indexed": true,
          "internalType": "string",
          "name": "_teamA",
          "type": "string"
        },
        {
          "indexed": true,
          "internalType": "string",
          "name": "_teamB",
          "type": "string"
        },
        {
          "indexed": false,
          "internalType": "string",
          "name": "_league",
          "type": "string"
        },
        {
          "indexed": false,
          "internalType": "string",
          "name": "_round",
          "type": "string"
        },
        {
          "indexed": false,
          "internalType": "uint256",
          "name": "_startTimestamp",
          "type": "uint256"
        },
        {
          "indexed": false,
          "internalType": "uint256",
          "name": "_endTimestamp",
          "type": "uint256"
        },
        {
          "indexed": false,
          "internalType": "uint16",
          "name": "_season",
          "type": "uint16"
        },
        {
          "indexed": false,
          "internalType": "int8",
          "name": "_realTeamAScore",
          "type": "int8"
        },
        {
          "indexed": false,
          "internalType": "int8",
          "name": "_realTeamBScore",
          "type": "int8"
        }
      ],
      "name": "SportEventAdded",
      "type": "event"
    },
    {
      "anonymous": false,
      "inputs": [
        {
          "indexed": true,
          "internalType": "bytes32",
          "name": "_eventId",
          "type": "bytes32"
        }
      ],
      "name": "SportEventCancelled",
      "type": "event"
    },
    {
      "anonymous": false,
      "inputs": [
        {
          "indexed": true,
          "internalType": "bytes32",
          "name": "_eventId",
          "type": "bytes32"
        },
        {
          "indexed": true,
          "internalType": "string",
          "name": "_teamA",
          "type": "string"
        },
        {
          "indexed": true,
          "internalType": "string",
          "name": "_teamB",
          "type": "string"
        },
        {
          "indexed": false,
          "internalType": "int8",
          "name": "_realTeamAScore",
          "type": "int8"
        },
        {
          "indexed": false,
          "internalType": "int8",
          "name": "_realTeamBScore",
          "type": "int8"
        }
      ],
      "name": "SportEventDeclared",
      "type": "event"
    },
    {
      "anonymous": false,
      "inputs": [
        {
          "indexed": true,
          "internalType": "address",
          "name": "implementation",
          "type": "address"
        }
      ],
      "name": "Upgraded",
      "type": "event"
    },
    {
      "inputs": [
        {
          "internalType": "string",
          "name": "_teamA",
          "type": "string"
        },
        {
          "internalType": "string",
          "name": "_teamB",
          "type": "string"
        },
        {
          "internalType": "string",
          "name": "_league",
          "type": "string"
        },
        {
          "internalType": "string",
          "name": "_round",
          "type": "string"
        },
        {
          "internalType": "uint256",
          "name": "_startTimestamp",
          "type": "uint256"
        },
        {
          "internalType": "uint256",
          "name": "_endTimestamp",
          "type": "uint256"
        },
        {
          "internalType": "uint16",
          "name": "_season",
          "type": "uint16"
        }
      ],
      "name": "addSportEvent",
      "outputs": [
        {
          "internalType": "bytes32",
          "name": "",
          "type": "bytes32"
        }
      ],
      "stateMutability": "nonpayable",
      "type": "function"
    },
    {
      "inputs": [
        {
          "internalType": "string[]",
          "name": "_teamAs",
          "type": "string[]"
        },
        {
          "internalType": "string[]",
          "name": "_teamBs",
          "type": "string[]"
        },
        {
          "internalType": "string[]",
          "name": "_leagues",
          "type": "string[]"
        },
        {
          "internalType": "string[]",
          "name": "_rounds",
          "type": "string[]"
        },
        {
          "internalType": "uint256[]",
          "name": "_startTimestamps",
          "type": "uint256[]"
        },
        {
          "internalType": "uint256[]",
          "name": "_endTimestamps",
          "type": "uint256[]"
        },
        {
          "internalType": "uint16[]",
          "name": "_seasons",
          "type": "uint16[]"
        }
      ],
      "name": "addSportEvents",
      "outputs": [
        {
          "internalType": "bytes32[]",
          "name": "",
          "type": "bytes32[]"
        }
      ],
      "stateMutability": "nonpayable",
      "type": "function"
    },
    {
      "inputs": [],
      "name": "adminAddress",
      "outputs": [
        {
          "internalType": "address",
          "name": "",
          "type": "address"
        }
      ],
      "stateMutability": "view",
      "type": "function"
    },
    {
      "inputs": [
        {
          "internalType": "bytes32[]",
          "name": "_eventIds",
          "type": "bytes32[]"
        }
      ],
      "name": "cancelSportEvents",
      "outputs": [],
      "stateMutability": "nonpayable",
      "type": "function"
    },
    {
      "inputs": [
        {
          "internalType": "bytes32",
          "name": "_eventId",
          "type": "bytes32"
        },
        {
          "internalType": "int8",
          "name": "_realTeamAScore",
          "type": "int8"
        },
        {
          "internalType": "int8",
          "name": "_realTeamBScore",
          "type": "int8"
        }
      ],
      "name": "declareOutcome",
      "outputs": [],
      "stateMutability": "nonpayable",
      "type": "function"
    },
    {
      "inputs": [
        {
          "internalType": "bytes32[]",
          "name": "_eventIds",
          "type": "bytes32[]"
        },
        {
          "internalType": "int8[]",
          "name": "_realTeamAScores",
          "type": "int8[]"
        },
        {
          "internalType": "int8[]",
          "name": "_realTeamBScores",
          "type": "int8[]"
        }
      ],
      "name": "declareOutcomes",
      "outputs": [],
      "stateMutability": "nonpayable",
      "type": "function"
    },
    {
      "inputs": [
        {
          "internalType": "bytes32",
          "name": "_eventId",
          "type": "bytes32"
        }
      ],
      "name": "eventExists",
      "outputs": [
        {
          "internalType": "bool",
          "name": "",
          "type": "bool"
        }
      ],
      "stateMutability": "view",
      "type": "function"
    },
    {
      "inputs": [
        {
          "internalType": "uint256",
          "name": "cursor",
          "type": "uint256"
        },
        {
          "internalType": "uint256",
          "name": "length",
          "type": "uint256"
        }
      ],
      "name": "getAllEvents",
      "outputs": [
        {
          "components": [
            {
              "internalType": "bytes32",
              "name": "id",
              "type": "bytes32"
            },
            {
              "internalType": "bytes",
              "name": "teamA",
              "type": "bytes"
            },
            {
              "internalType": "bytes",
              "name": "teamB",
              "type": "bytes"
            },
            {
              "internalType": "bytes",
              "name": "league",
              "type": "bytes"
            },
            {
              "internalType": "bytes",
              "name": "round",
              "type": "bytes"
            },
            {
              "internalType": "uint256",
              "name": "startTimestamp",
              "type": "uint256"
            },
            {
              "internalType": "uint256",
              "name": "endTimestamp",
              "type": "uint256"
            },
            {
              "internalType": "enum ISportPrediction.EventOutcome",
              "name": "outcome",
              "type": "uint8"
            },
            {
              "internalType": "uint16",
              "name": "season",
              "type": "uint16"
            },
            {
              "internalType": "int8",
              "name": "realTeamAScore",
              "type": "int8"
            },
            {
              "internalType": "int8",
              "name": "realTeamBScore",
              "type": "int8"
            }
          ],
          "internalType": "struct ISportPrediction.SportEvent[]",
          "name": "",
          "type": "tuple[]"
        }
      ],
      "stateMutability": "view",
      "type": "function"
    },
    {
      "inputs": [
        {
          "internalType": "bytes32[]",
          "name": "eventIds",
          "type": "bytes32[]"
        }
      ],
      "name": "getEvents",
      "outputs": [
        {
          "components": [
            {
              "internalType": "bytes32",
              "name": "id",
              "type": "bytes32"
            },
            {
              "internalType": "bytes",
              "name": "teamA",
              "type": "bytes"
            },
            {
              "internalType": "bytes",
              "name": "teamB",
              "type": "bytes"
            },
            {
              "internalType": "bytes",
              "name": "league",
              "type": "bytes"
            },
            {
              "internalType": "bytes",
              "name": "round",
              "type": "bytes"
            },
            {
              "internalType": "uint256",
              "name": "startTimestamp",
              "type": "uint256"
            },
            {
              "internalType": "uint256",
              "name": "endTimestamp",
              "type": "uint256"
            },
            {
              "internalType": "enum ISportPrediction.EventOutcome",
              "name": "outcome",
              "type": "uint8"
            },
            {
              "internalType": "uint16",
              "name": "season",
              "type": "uint16"
            },
            {
              "internalType": "int8",
              "name": "realTeamAScore",
              "type": "int8"
            },
            {
              "internalType": "int8",
              "name": "realTeamBScore",
              "type": "int8"
            }
          ],
          "internalType": "struct ISportPrediction.SportEvent[]",
          "name": "",
          "type": "tuple[]"
        }
      ],
      "stateMutability": "view",
      "type": "function"
    },
    {
      "inputs": [],
      "name": "getEventsLength",
      "outputs": [
        {
          "internalType": "uint256",
          "name": "",
          "type": "uint256"
        }
      ],
      "stateMutability": "view",
      "type": "function"
    },
    {
      "inputs": [
        {
          "internalType": "uint256[]",
          "name": "indexes",
          "type": "uint256[]"
        }
      ],
      "name": "getIndexedEvents",
      "outputs": [
        {
          "components": [
            {
              "internalType": "bytes32",
              "name": "id",
              "type": "bytes32"
            },
            {
              "internalType": "bytes",
              "name": "teamA",
              "type": "bytes"
            },
            {
              "internalType": "bytes",
              "name": "teamB",
              "type": "bytes"
            },
            {
              "internalType": "bytes",
              "name": "league",
              "type": "bytes"
            },
            {
              "internalType": "bytes",
              "name": "round",
              "type": "bytes"
            },
            {
              "internalType": "uint256",
              "name": "startTimestamp",
              "type": "uint256"
            },
            {
              "internalType": "uint256",
              "name": "endTimestamp",
              "type": "uint256"
            },
            {
              "internalType": "enum ISportPrediction.EventOutcome",
              "name": "outcome",
              "type": "uint8"
            },
            {
              "internalType": "uint16",
              "name": "season",
              "type": "uint16"
            },
            {
              "internalType": "int8",
              "name": "realTeamAScore",
              "type": "int8"
            },
            {
              "internalType": "int8",
              "name": "realTeamBScore",
              "type": "int8"
            }
          ],
          "internalType": "struct ISportPrediction.SportEvent[]",
          "name": "",
          "type": "tuple[]"
        }
      ],
      "stateMutability": "view",
      "type": "function"
    },
    {
      "inputs": [],
      "name": "getLiveEvents",
      "outputs": [
        {
          "components": [
            {
              "internalType": "bytes32",
              "name": "id",
              "type": "bytes32"
            },
            {
              "internalType": "bytes",
              "name": "teamA",
              "type": "bytes"
            },
            {
              "internalType": "bytes",
              "name": "teamB",
              "type": "bytes"
            },
            {
              "internalType": "bytes",
              "name": "league",
              "type": "bytes"
            },
            {
              "internalType": "bytes",
              "name": "round",
              "type": "bytes"
            },
            {
              "internalType": "uint256",
              "name": "startTimestamp",
              "type": "uint256"
            },
            {
              "internalType": "uint256",
              "name": "endTimestamp",
              "type": "uint256"
            },
            {
              "internalType": "enum ISportPrediction.EventOutcome",
              "name": "outcome",
              "type": "uint8"
            },
            {
              "internalType": "uint16",
              "name": "season",
              "type": "uint16"
            },
            {
              "internalType": "int8",
              "name": "realTeamAScore",
              "type": "int8"
            },
            {
              "internalType": "int8",
              "name": "realTeamBScore",
              "type": "int8"
            }
          ],
          "internalType": "struct ISportPrediction.SportEvent[]",
          "name": "",
          "type": "tuple[]"
        }
      ],
      "stateMutability": "view",
      "type": "function"
    },
    {
      "inputs": [],
      "name": "getPendingEvents",
      "outputs": [
        {
          "components": [
            {
              "internalType": "bytes32",
              "name": "id",
              "type": "bytes32"
            },
            {
              "internalType": "bytes",
              "name": "teamA",
              "type": "bytes"
            },
            {
              "internalType": "bytes",
              "name": "teamB",
              "type": "bytes"
            },
            {
              "internalType": "bytes",
              "name": "league",
              "type": "bytes"
            },
            {
              "internalType": "bytes",
              "name": "round",
              "type": "bytes"
            },
            {
              "internalType": "uint256",
              "name": "startTimestamp",
              "type": "uint256"
            },
            {
              "internalType": "uint256",
              "name": "endTimestamp",
              "type": "uint256"
            },
            {
              "internalType": "enum ISportPrediction.EventOutcome",
              "name": "outcome",
              "type": "uint8"
            },
            {
              "internalType": "uint16",
              "name": "season",
              "type": "uint16"
            },
            {
              "internalType": "int8",
              "name": "realTeamAScore",
              "type": "int8"
            },
            {
              "internalType": "int8",
              "name": "realTeamBScore",
              "type": "int8"
            }
          ],
          "internalType": "struct ISportPrediction.SportEvent[]",
          "name": "",
          "type": "tuple[]"
        }
      ],
      "stateMutability": "view",
      "type": "function"
    },
    {
      "inputs": [
        {
          "internalType": "address",
          "name": "_adminAddress",
          "type": "address"
        }
      ],
      "name": "initialize",
      "outputs": [],
      "stateMutability": "nonpayable",
      "type": "function"
    },
    {
      "inputs": [],
      "name": "owner",
      "outputs": [
        {
          "internalType": "address",
          "name": "",
          "type": "address"
        }
      ],
      "stateMutability": "view",
      "type": "function"
    },
    {
      "inputs": [],
      "name": "proxiableUUID",
      "outputs": [
        {
          "internalType": "bytes32",
          "name": "",
          "type": "bytes32"
        }
      ],
      "stateMutability": "view",
      "type": "function"
    },
    {
      "inputs": [],
      "name": "renounceOwnership",
      "outputs": [],
      "stateMutability": "nonpayable",
      "type": "function"
    },
    {
      "inputs": [
        {
          "internalType": "address",
          "name": "_adminAddress",
          "type": "address"
        }
      ],
      "name": "setAdminAddress",
      "outputs": [],
      "stateMutability": "nonpayable",
      "type": "function"
    },
    {
      "inputs": [
        {
          "internalType": "address",
          "name": "newOwner",
          "type": "address"
        }
      ],
      "name": "transferOwnership",
      "outputs": [],
      "stateMutability": "nonpayable",
      "type": "function"
    },
    {
      "inputs": [
        {
          "internalType": "address",
          "name": "newImplementation",
          "type": "address"
        }
      ],
      "name": "upgradeTo",
      "outputs": [],
      "stateMutability": "nonpayable",
      "type": "function"
    },
    {
      "inputs": [
        {
          "internalType": "address",
          "name": "newImplementation",
          "type": "address"
        },
        {
          "internalType": "bytes",
          "name": "data",
          "type": "bytes"
        }
      ],
      "name": "upgradeToAndCall",
      "outputs": [],
      "stateMutability": "payable",
      "type": "function"
    }
  ],
  "bytecode": "0x60a06040523060601b60805234801561001757600080fd5b5060805160601c613c98610052600039600081816109b9015281816109f901528181610a9901528181610ad90152610b6c0152613c986000f3fe60806040526004361061012a5760003560e01c8063765240d8116100ab578063aa7f79e71161006f578063aa7f79e71461032e578063b4184e701461034e578063bb6515e414610363578063c4d66de814610378578063f2fde38b14610398578063fc6f9468146103b857600080fd5b8063765240d81461027c5780637884c3491461029c5780638a301671146102bc5780638da5cb5b146102dc57806394fd2e5b1461030e57600080fd5b806347fc216e116100f257806347fc216e146101f35780634f1ef2861461021257806352d1902d1461022557806364b1c6e41461023a578063715018a61461026757600080fd5b8063040988781461012f578063118e58bd146101515780632c1e816d1461018657806333290e4f146101a65780633659cfe6146101d3575b600080fd5b34801561013b57600080fd5b5061014f61014a366004613318565b6103d8565b005b34801561015d57600080fd5b5061017161016c3660046134ad565b610488565b60405190151581526020015b60405180910390f35b34801561019257600080fd5b5061014f6101a1366004613266565b6104af565b3480156101b257600080fd5b506101c66101c13660046132de565b6105a0565b60405161017d91906137c0565b3480156101df57600080fd5b5061014f6101ee366004613266565b6109ae565b3480156101ff57600080fd5b5060ca545b60405190815260200161017d565b61014f610220366004613280565b610a8e565b34801561023157600080fd5b50610204610b5f565b34801561024657600080fd5b5061025a61025536600461339b565b610c12565b60405161017d919061377c565b34801561027357600080fd5b5061014f610e25565b34801561028857600080fd5b5061014f6102973660046134dd565b610e5b565b3480156102a857600080fd5b5061014f6102b73660046132de565b611086565b3480156102c857600080fd5b506102046102d7366004613518565b611227565b3480156102e857600080fd5b506097546001600160a01b03165b6040516001600160a01b03909116815260200161017d565b34801561031a57600080fd5b506101c66103293660046132de565b6115c3565b34801561033a57600080fd5b506101c66103493660046135e3565b6119ca565b34801561035a57600080fd5b506101c6611da5565b34801561036f57600080fd5b506101c6612327565b34801561038457600080fd5b5061014f610393366004613266565b6128a0565b3480156103a457600080fd5b5061014f6103b3366004613266565b61297c565b3480156103c457600080fd5b5060c9546102f6906001600160a01b031681565b60005b83518160ff16101561048257610470848260ff168151811061040d57634e487b7160e01b600052603260045260246000fd5b6020026020010151848360ff168151811061043857634e487b7160e01b600052603260045260246000fd5b6020026020010151848460ff168151811061046357634e487b7160e01b600052603260045260246000fd5b6020026020010151610e5b565b8061047a81613bcf565b9150506103db565b50505050565b60ca5460009061049a57506000919050565b50600090815260cb6020526040902054151590565b6097546001600160a01b031633146104e25760405162461bcd60e51b81526004016104d990613a25565b60405180910390fd5b806001600160a01b03811661054b5760405162461bcd60e51b815260206004820152602960248201527f53706f727450726564696374696f6e3a20416464726573732030206973206e6f6044820152681d08185b1b1bddd95960ba1b60648201526084016104d9565b60c980546001600160a01b0319166001600160a01b0384169081179091556040519081527fa54e30973125ab6651706f5e9b1b43cf9bdba85ff8204cba762dfe45c0b4b9d09060200160405180910390a15050565b80516060906000816001600160401b038111156105cd57634e487b7160e01b600052604160045260246000fd5b60405190808252806020026020018201604052801561060657816020015b6105f3612ee5565b8152602001906001900390816105eb5790505b50905060005b828110156109a65760ca85828151811061063657634e487b7160e01b600052603260045260246000fd5b60200260200101518154811061065c57634e487b7160e01b600052603260045260246000fd5b9060005260206000209060080201604051806101600160405290816000820154815260200160018201805461069090613b94565b80601f01602080910402602001604051908101604052809291908181526020018280546106bc90613b94565b80156107095780601f106106de57610100808354040283529160200191610709565b820191906000526020600020905b8154815290600101906020018083116106ec57829003601f168201915b5050505050815260200160028201805461072290613b94565b80601f016020809104026020016040519081016040528092919081815260200182805461074e90613b94565b801561079b5780601f106107705761010080835404028352916020019161079b565b820191906000526020600020905b81548152906001019060200180831161077e57829003601f168201915b505050505081526020016003820180546107b490613b94565b80601f01602080910402602001604051908101604052809291908181526020018280546107e090613b94565b801561082d5780601f106108025761010080835404028352916020019161082d565b820191906000526020600020905b81548152906001019060200180831161081057829003601f168201915b5050505050815260200160048201805461084690613b94565b80601f016020809104026020016040519081016040528092919081815260200182805461087290613b94565b80156108bf5780601f10610894576101008083540402835291602001916108bf565b820191906000526020600020905b8154815290600101906020018083116108a257829003601f168201915b50505091835250506005820154602082015260068201546040820152600782015460609091019060ff16600281111561090857634e487b7160e01b600052602160045260246000fd5b600281111561092757634e487b7160e01b600052602160045260246000fd5b81526007919091015461ffff610100820416602083015263010000008104600090810b810b810b6040840152600160201b909104810b810b900b606090910152825183908390811061098957634e487b7160e01b600052603260045260246000fd5b602090810291909101015261099f816001613b39565b905061060c565b509392505050565b306001600160a01b037f00000000000000000000000000000000000000000000000000000000000000001614156109f75760405162461bcd60e51b81526004016104d990613956565b7f00000000000000000000000000000000000000000000000000000000000000006001600160a01b0316610a40600080516020613c1c833981519152546001600160a01b031690565b6001600160a01b031614610a665760405162461bcd60e51b81526004016104d9906139a2565b610a6f81612a14565b60408051600080825260208201909252610a8b91839190612a3e565b50565b306001600160a01b037f0000000000000000000000000000000000000000000000000000000000000000161415610ad75760405162461bcd60e51b81526004016104d990613956565b7f00000000000000000000000000000000000000000000000000000000000000006001600160a01b0316610b20600080516020613c1c833981519152546001600160a01b031690565b6001600160a01b031614610b465760405162461bcd60e51b81526004016104d9906139a2565b610b4f82612a14565b610b5b82826001612a3e565b5050565b6000306001600160a01b037f00000000000000000000000000000000000000000000000000000000000000001614610bff5760405162461bcd60e51b815260206004820152603860248201527f555550535570677261646561626c653a206d757374206e6f742062652063616c60448201527f6c6564207468726f7567682064656c656761746563616c6c000000000000000060648201526084016104d9565b50600080516020613c1c83398151915290565b60c9546060906001600160a01b03163314610c3f5760405162461bcd60e51b81526004016104d9906139ee565b600087516001600160401b03811115610c6857634e487b7160e01b600052604160045260246000fd5b604051908082528060200260200182016040528015610c91578160200160208202803683370190505b50905060005b89518160ff161015610e1857610dd88a8260ff1681518110610cc957634e487b7160e01b600052603260045260246000fd5b60200260200101518a8360ff1681518110610cf457634e487b7160e01b600052603260045260246000fd5b60200260200101518a8460ff1681518110610d1f57634e487b7160e01b600052603260045260246000fd5b60200260200101518a8560ff1681518110610d4a57634e487b7160e01b600052603260045260246000fd5b60200260200101518a8660ff1681518110610d7557634e487b7160e01b600052603260045260246000fd5b60200260200101518a8760ff1681518110610da057634e487b7160e01b600052603260045260246000fd5b60200260200101518a8860ff1681518110610dcb57634e487b7160e01b600052603260045260246000fd5b6020026020010151611227565b828260ff1681518110610dfb57634e487b7160e01b600052603260045260246000fd5b602090810291909101015280610e1081613bcf565b915050610c97565b5098975050505050505050565b6097546001600160a01b03163314610e4f5760405162461bcd60e51b81526004016104d990613a25565b610e596000612bbd565b565b60c9546001600160a01b03163314610e855760405162461bcd60e51b81526004016104d9906139ee565b610e8e83610488565b610eaa5760405162461bcd60e51b81526004016104d990613aa5565b6000610eb584612c0f565b9050600060ca8281548110610eda57634e487b7160e01b600052603260045260246000fd5b906000526020600020906008020190504281600601541115610f3e5760405162461bcd60e51b815260206004820181905260248201527f53706f72744f7261636c653a204576656e7420686173206e6f7420656e64656460448201526064016104d9565b6001600782015460ff166002811115610f6757634e487b7160e01b600052602160045260246000fd5b1415610fca5760405162461bcd60e51b815260206004820152602c60248201527f53706f72744f7261636c653a204576656e742068617320616c7265616479206260448201526b19595b88191958db185c995960a21b60648201526084016104d9565b60078101805464ffff0000ff19166301000000600087810b60ff9081169290920264ff00000000191692909217600160201b9287900b919091169190910217600117905560405161101f9060028301906136e1565b60405180910390208160010160405161103891906136e1565b60408051918290038220600088810b845287900b60208401529188917fb3c91b560e49a6097fac1a86cb3971e8c8fab542c1eb61078190c1c2265aa082910160405180910390a45050505050565b60c9546001600160a01b031633146110b05760405162461bcd60e51b81526004016104d9906139ee565b60005b81518160ff161015610b5b5760006110f4838360ff16815181106110e757634e487b7160e01b600052603260045260246000fd5b6020026020010151612c0f565b9050600060ca828154811061111957634e487b7160e01b600052603260045260246000fd5b6000918252602082206008909102019150600782015460ff16600281111561115157634e487b7160e01b600052602160045260246000fd5b146111aa5760405162461bcd60e51b8152602060048201526024808201527f53706f72744f7261636c653a204576656e742063616e742062652063616e63656044820152631b1b195960e21b60648201526084016104d9565b60078101805460ff191660021790558351849060ff85169081106111de57634e487b7160e01b600052603260045260246000fd5b60200260200101517f0c25952cd4d28e7c05039f470e92c856d0b57383a521e16a3a8e00d3f9efa21660405160405180910390a25050808061121f90613bcf565b9150506110b3565b60c9546000906001600160a01b031633146112545760405162461bcd60e51b81526004016104d9906139ee565b4284116112c25760405162461bcd60e51b815260206004820152603660248201527f53706f72744f7261636c653a2054696d65206d7573742062652067726561746560448201527572207468616e20626c6f636b636861696e2074696d6560501b60648201526084016104d9565b60008888888886896040516020016112df9695949392919061366e565b60405160208183030381529060405280519060200120905061130081610488565b156113575760405162461bcd60e51b815260206004820152602160248201527f53706f72744f7261636c653a204576656e7420616c72656164792065786973746044820152607360f81b60648201526084016104d9565b60ca6040518061016001604052808381526020018b81526020018a8152602001898152602001888152602001878152602001868152602001600060028111156113b057634e487b7160e01b600052602160045260246000fd5b815261ffff86166020808301919091526000196040830181905260609092019190915282546001818101855560009485529382902083516008909202019081558282015180519394919361140c93928501929190910190612f61565b5060408201518051611428916002840191602090910190612f61565b5060608201518051611444916003840191602090910190612f61565b5060808201518051611460916004840191602090910190612f61565b5060a0820151600582015560c0820151600682015560e082015160078201805460ff191660018360028111156114a657634e487b7160e01b600052602160045260246000fd5b02179055506101008281015160079290920180546101208501516101409095015163ffffff001990911661ffff90941690920263ff0000001916929092176301000000600094850b60ff908116919091029190911764ff000000001916600160201b92850b919091169190910217905560ca5461152590600190613b51565b9050611532816001613b39565b600083815260cb6020526040908190209190915551611552908a90613652565b60405180910390208a6040516115689190613652565b6040518091039020837ffb555f8655eded9b27b5faaa15742133d8ce4a1c1b93de23e1415c38c2ba88db8b8b8b8b8b600019806040516115ae97969594939291906138fc565b60405180910390a45098975050505050505050565b80516060906000816001600160401b038111156115f057634e487b7160e01b600052604160045260246000fd5b60405190808252806020026020018201604052801561162957816020015b611616612ee5565b81526020019060019003908161160e5790505b50905060005b828110156109a657600061165c8683815181106110e757634e487b7160e01b600052603260045260246000fd5b905060ca818154811061167f57634e487b7160e01b600052603260045260246000fd5b906000526020600020906008020160405180610160016040529081600082015481526020016001820180546116b390613b94565b80601f01602080910402602001604051908101604052809291908181526020018280546116df90613b94565b801561172c5780601f106117015761010080835404028352916020019161172c565b820191906000526020600020905b81548152906001019060200180831161170f57829003601f168201915b5050505050815260200160028201805461174590613b94565b80601f016020809104026020016040519081016040528092919081815260200182805461177190613b94565b80156117be5780601f10611793576101008083540402835291602001916117be565b820191906000526020600020905b8154815290600101906020018083116117a157829003601f168201915b505050505081526020016003820180546117d790613b94565b80601f016020809104026020016040519081016040528092919081815260200182805461180390613b94565b80156118505780601f1061182557610100808354040283529160200191611850565b820191906000526020600020905b81548152906001019060200180831161183357829003601f168201915b5050505050815260200160048201805461186990613b94565b80601f016020809104026020016040519081016040528092919081815260200182805461189590613b94565b80156118e25780601f106118b7576101008083540402835291602001916118e2565b820191906000526020600020905b8154815290600101906020018083116118c557829003601f168201915b50505091835250506005820154602082015260068201546040820152600782015460609091019060ff16600281111561192b57634e487b7160e01b600052602160045260246000fd5b600281111561194a57634e487b7160e01b600052602160045260246000fd5b81526007919091015461ffff610100820416602083015263010000008104600090810b810b810b6040840152600160201b909104810b810b900b60609091015283518490849081106119ac57634e487b7160e01b600052603260045260246000fd5b6020908102919091010152506119c3816001613b39565b905061162f565b60606000826001600160401b038111156119f457634e487b7160e01b600052604160045260246000fd5b604051908082528060200260200182016040528015611a2d57816020015b611a1a612ee5565b815260200190600190039081611a125790505b509050835b838110156109a65760ca8181548110611a5b57634e487b7160e01b600052603260045260246000fd5b90600052602060002090600802016040518061016001604052908160008201548152602001600182018054611a8f90613b94565b80601f0160208091040260200160405190810160405280929190818152602001828054611abb90613b94565b8015611b085780601f10611add57610100808354040283529160200191611b08565b820191906000526020600020905b815481529060010190602001808311611aeb57829003601f168201915b50505050508152602001600282018054611b2190613b94565b80601f0160208091040260200160405190810160405280929190818152602001828054611b4d90613b94565b8015611b9a5780601f10611b6f57610100808354040283529160200191611b9a565b820191906000526020600020905b815481529060010190602001808311611b7d57829003601f168201915b50505050508152602001600382018054611bb390613b94565b80601f0160208091040260200160405190810160405280929190818152602001828054611bdf90613b94565b8015611c2c5780601f10611c0157610100808354040283529160200191611c2c565b820191906000526020600020905b815481529060010190602001808311611c0f57829003601f168201915b50505050508152602001600482018054611c4590613b94565b80601f0160208091040260200160405190810160405280929190818152602001828054611c7190613b94565b8015611cbe5780601f10611c9357610100808354040283529160200191611cbe565b820191906000526020600020905b815481529060010190602001808311611ca157829003601f168201915b50505091835250506005820154602082015260068201546040820152600782015460609091019060ff166002811115611d0757634e487b7160e01b600052602160045260246000fd5b6002811115611d2657634e487b7160e01b600052602160045260246000fd5b81526007919091015461ffff610100820416602083015263010000008104600090810b810b810b6040840152600160201b909104810b810b900b6060909101528251839083908110611d8857634e487b7160e01b600052603260045260246000fd5b6020908102919091010152611d9e816001613b39565b9050611a32565b60606000805b60ca54811015611e7257600060ca8281548110611dd857634e487b7160e01b600052603260045260246000fd5b600091825260209091206007600890920201015460ff166002811115611e0e57634e487b7160e01b600052602160045260246000fd5b148015611e4d57504260ca8281548110611e3857634e487b7160e01b600052603260045260246000fd5b90600052602060002090600802016005015410155b15611e6057611e5d826001613b39565b91505b611e6b816001613b39565b9050611dab565b506000816001600160401b03811115611e9b57634e487b7160e01b600052604160045260246000fd5b604051908082528060200260200182016040528015611ed457816020015b611ec1612ee5565b815260200190600190039081611eb95790505b50905081156123215760ca546000905b801561231e57600060ca611ef9600184613b51565b81548110611f1757634e487b7160e01b600052603260045260246000fd5b600091825260209091206007600890920201015460ff166002811115611f4d57634e487b7160e01b600052602160045260246000fd5b148015611f9657504260ca611f63600184613b51565b81548110611f8157634e487b7160e01b600052603260045260246000fd5b90600052602060002090600802016005015410155b1561230c5760ca611fa8600183613b51565b81548110611fc657634e487b7160e01b600052603260045260246000fd5b90600052602060002090600802016040518061016001604052908160008201548152602001600182018054611ffa90613b94565b80601f016020809104026020016040519081016040528092919081815260200182805461202690613b94565b80156120735780601f1061204857610100808354040283529160200191612073565b820191906000526020600020905b81548152906001019060200180831161205657829003601f168201915b5050505050815260200160028201805461208c90613b94565b80601f01602080910402602001604051908101604052809291908181526020018280546120b890613b94565b80156121055780601f106120da57610100808354040283529160200191612105565b820191906000526020600020905b8154815290600101906020018083116120e857829003601f168201915b5050505050815260200160038201805461211e90613b94565b80601f016020809104026020016040519081016040528092919081815260200182805461214a90613b94565b80156121975780601f1061216c57610100808354040283529160200191612197565b820191906000526020600020905b81548152906001019060200180831161217a57829003601f168201915b505050505081526020016004820180546121b090613b94565b80601f01602080910402602001604051908101604052809291908181526020018280546121dc90613b94565b80156122295780601f106121fe57610100808354040283529160200191612229565b820191906000526020600020905b81548152906001019060200180831161220c57829003601f168201915b50505091835250506005820154602082015260068201546040820152600782015460609091019060ff16600281111561227257634e487b7160e01b600052602160045260246000fd5b600281111561229157634e487b7160e01b600052602160045260246000fd5b81526007919091015461ffff610100820416602083015263010000008104600090810b810b810b6040840152600160201b909104810b810b900b60609091015283518490849081106122f357634e487b7160e01b600052603260045260246000fd5b6020908102919091010152612309826001613b39565b91505b612317600182613b51565b9050611ee4565b50505b92915050565b60606000805b60ca548110156123f457600060ca828154811061235a57634e487b7160e01b600052603260045260246000fd5b600091825260209091206007600890920201015460ff16600281111561239057634e487b7160e01b600052602160045260246000fd5b1480156123cf57504260ca82815481106123ba57634e487b7160e01b600052603260045260246000fd5b90600052602060002090600802016005015411155b156123e2576123df826001613b39565b91505b6123ed816001613b39565b905061232d565b506000816001600160401b0381111561241d57634e487b7160e01b600052604160045260246000fd5b60405190808252806020026020018201604052801561245657816020015b612443612ee5565b81526020019060019003908161243b5790505b50905081156123215760ca546000905b801561231e57600060ca61247b600184613b51565b8154811061249957634e487b7160e01b600052603260045260246000fd5b600091825260209091206007600890920201015460ff1660028111156124cf57634e487b7160e01b600052602160045260246000fd5b14801561251857504260ca6124e5600184613b51565b8154811061250357634e487b7160e01b600052603260045260246000fd5b90600052602060002090600802016005015411155b1561288e5760ca61252a600183613b51565b8154811061254857634e487b7160e01b600052603260045260246000fd5b9060005260206000209060080201604051806101600160405290816000820154815260200160018201805461257c90613b94565b80601f01602080910402602001604051908101604052809291908181526020018280546125a890613b94565b80156125f55780601f106125ca576101008083540402835291602001916125f5565b820191906000526020600020905b8154815290600101906020018083116125d857829003601f168201915b5050505050815260200160028201805461260e90613b94565b80601f016020809104026020016040519081016040528092919081815260200182805461263a90613b94565b80156126875780601f1061265c57610100808354040283529160200191612687565b820191906000526020600020905b81548152906001019060200180831161266a57829003601f168201915b505050505081526020016003820180546126a090613b94565b80601f01602080910402602001604051908101604052809291908181526020018280546126cc90613b94565b80156127195780601f106126ee57610100808354040283529160200191612719565b820191906000526020600020905b8154815290600101906020018083116126fc57829003601f168201915b5050505050815260200160048201805461273290613b94565b80601f016020809104026020016040519081016040528092919081815260200182805461275e90613b94565b80156127ab5780601f10612780576101008083540402835291602001916127ab565b820191906000526020600020905b81548152906001019060200180831161278e57829003601f168201915b50505091835250506005820154602082015260068201546040820152600782015460609091019060ff1660028111156127f457634e487b7160e01b600052602160045260246000fd5b600281111561281357634e487b7160e01b600052602160045260246000fd5b81526007919091015461ffff610100820416602083015263010000008104600090810b810b810b6040840152600160201b909104810b810b900b606090910152835184908490811061287557634e487b7160e01b600052603260045260246000fd5b602090810291909101015261288b826001613b39565b91505b612899600182613b51565b9050612466565b600054610100900460ff166128bb5760005460ff16156128bf565b303b155b6129225760405162461bcd60e51b815260206004820152602e60248201527f496e697469616c697a61626c653a20636f6e747261637420697320616c72656160448201526d191e481a5b9a5d1a585b1a5e995960921b60648201526084016104d9565b600054610100900460ff16158015612944576000805461ffff19166101011790555b61294c612c51565b60c980546001600160a01b0319166001600160a01b0384161790558015610b5b576000805461ff00191690555050565b6097546001600160a01b031633146129a65760405162461bcd60e51b81526004016104d990613a25565b6001600160a01b038116612a0b5760405162461bcd60e51b815260206004820152602660248201527f4f776e61626c653a206e6577206f776e657220697320746865207a65726f206160448201526564647265737360d01b60648201526084016104d9565b610a8b81612bbd565b6097546001600160a01b03163314610a8b5760405162461bcd60e51b81526004016104d990613a25565b7f4910fdfa16fed3260ed0e7147f7cc6da11a60208b5b9406d12a635614ffd91435460ff1615612a7657612a7183612c80565b505050565b826001600160a01b03166352d1902d6040518163ffffffff1660e01b815260040160206040518083038186803b158015612aaf57600080fd5b505afa925050508015612adf575060408051601f3d908101601f19168201909252612adc918101906134c5565b60015b612b425760405162461bcd60e51b815260206004820152602e60248201527f45524331393637557067726164653a206e657720696d706c656d656e7461746960448201526d6f6e206973206e6f74205555505360901b60648201526084016104d9565b600080516020613c1c8339815191528114612bb15760405162461bcd60e51b815260206004820152602960248201527f45524331393637557067726164653a20756e737570706f727465642070726f786044820152681a58589b195555525160ba1b60648201526084016104d9565b50612a71838383612d1c565b609780546001600160a01b038381166001600160a01b0319831681179093556040519116919082907f8be0079c531659141344cd1fd0a4f28419497f9722a3daafe3b4186f6b6457e090600090a35050565b6000612c1a82610488565b612c365760405162461bcd60e51b81526004016104d990613aa5565b600082815260cb602052604090205461232190600190613b51565b600054610100900460ff16612c785760405162461bcd60e51b81526004016104d990613a5a565b610e59612d41565b6001600160a01b0381163b612ced5760405162461bcd60e51b815260206004820152602d60248201527f455243313936373a206e657720696d706c656d656e746174696f6e206973206e60448201526c1bdd08184818dbdb9d1c9858dd609a1b60648201526084016104d9565b600080516020613c1c83398151915280546001600160a01b0319166001600160a01b0392909216919091179055565b612d2583612d71565b600082511180612d325750805b15612a71576104828383612db1565b600054610100900460ff16612d685760405162461bcd60e51b81526004016104d990613a5a565b610e5933612bbd565b612d7a81612c80565b6040516001600160a01b038216907fbc7cd75a20ee27fd9adebab32041f755214dbc6bffa90cc0225b39da2e5c2d3b90600090a250565b60606001600160a01b0383163b612e195760405162461bcd60e51b815260206004820152602660248201527f416464726573733a2064656c65676174652063616c6c20746f206e6f6e2d636f6044820152651b9d1c9858dd60d21b60648201526084016104d9565b600080846001600160a01b031684604051612e349190613652565b600060405180830381855af49150503d8060008114612e6f576040519150601f19603f3d011682016040523d82523d6000602084013e612e74565b606091505b5091509150612e9c8282604051806060016040528060278152602001613c3c60279139612ea5565b95945050505050565b60608315612eb4575081612ede565b825115612ec45782518084602001fd5b8160405162461bcd60e51b81526004016104d991906138e9565b9392505050565b6040518061016001604052806000801916815260200160608152602001606081526020016060815260200160608152602001600081526020016000815260200160006002811115612f4657634e487b7160e01b600052602160045260246000fd5b81526000602082018190526040820181905260609091015290565b828054612f6d90613b94565b90600052602060002090601f016020900481019282612f8f5760008555612fd5565b82601f10612fa857805160ff1916838001178555612fd5565b82800160010185558215612fd5579182015b82811115612fd5578251825591602001919060010190612fba565b50612fe1929150612fe5565b5090565b5b80821115612fe15760008155600101612fe6565b60006001600160401b0383111561301357613013613c05565b613026601f8401601f1916602001613ae6565b905082815283838301111561303a57600080fd5b828260208301376000602084830101529392505050565b80356001600160a01b038116811461306857600080fd5b919050565b600082601f83011261307d578081fd5b8135602061309261308d83613b16565b613ae6565b80838252828201915082860187848660051b89010111156130b1578586fd5b855b858110156130cf578135845292840192908401906001016130b3565b5090979650505050505050565b600082601f8301126130ec578081fd5b813560206130fc61308d83613b16565b80838252828201915082860187848660051b890101111561311b578586fd5b855b858110156130cf5761312e82613223565b8452928401929084019060010161311d565b600082601f830112613150578081fd5b8135602061316061308d83613b16565b80838252828201915082860187848660051b890101111561317f578586fd5b855b858110156130cf5781356001600160401b0381111561319e578788fd5b6131ac8a87838c0101613235565b8552509284019290840190600101613181565b600082601f8301126131cf578081fd5b813560206131df61308d83613b16565b80838252828201915082860187848660051b89010111156131fe578586fd5b855b858110156130cf5761321182613254565b84529284019290840190600101613200565b8035600081900b811461306857600080fd5b600082601f830112613245578081fd5b612ede83833560208501612ffa565b803561ffff8116811461306857600080fd5b600060208284031215613277578081fd5b612ede82613051565b60008060408385031215613292578081fd5b61329b83613051565b915060208301356001600160401b038111156132b5578182fd5b8301601f810185136132c5578182fd5b6132d485823560208401612ffa565b9150509250929050565b6000602082840312156132ef578081fd5b81356001600160401b03811115613304578182fd5b6133108482850161306d565b949350505050565b60008060006060848603121561332c578081fd5b83356001600160401b0380821115613342578283fd5b61334e8783880161306d565b94506020860135915080821115613363578283fd5b61336f878388016130dc565b93506040860135915080821115613384578283fd5b50613391868287016130dc565b9150509250925092565b600080600080600080600060e0888a0312156133b5578485fd5b87356001600160401b03808211156133cb578687fd5b6133d78b838c01613140565b985060208a01359150808211156133ec578687fd5b6133f88b838c01613140565b975060408a013591508082111561340d578687fd5b6134198b838c01613140565b965060608a013591508082111561342e578485fd5b61343a8b838c01613140565b955060808a013591508082111561344f578485fd5b61345b8b838c0161306d565b945060a08a0135915080821115613470578384fd5b61347c8b838c0161306d565b935060c08a0135915080821115613491578283fd5b5061349e8a828b016131bf565b91505092959891949750929550565b6000602082840312156134be578081fd5b5035919050565b6000602082840312156134d6578081fd5b5051919050565b6000806000606084860312156134f1578081fd5b8335925061350160208501613223565b915061350f60408501613223565b90509250925092565b600080600080600080600060e0888a031215613532578081fd5b87356001600160401b0380821115613548578283fd5b6135548b838c01613235565b985060208a0135915080821115613569578283fd5b6135758b838c01613235565b975060408a013591508082111561358a578283fd5b6135968b838c01613235565b965060608a01359150808211156135ab578283fd5b506135b88a828b01613235565b9450506080880135925060a088013591506135d560c08901613254565b905092959891949750929550565b600080604083850312156135f5578182fd5b50508035926020909101359150565b6000815180845261361c816020860160208601613b68565b601f01601f19169290920160200192915050565b6003811061364e57634e487b7160e01b600052602160045260246000fd5b9052565b60008251613664818460208701613b68565b9190910192915050565b60008751613680818460208c01613b68565b875190830190613694818360208c01613b68565b87519101906136a7818360208b01613b68565b86519101906136ba818360208a01613b68565b60f09590951b6001600160f01b031916940193845250506002820152602201949350505050565b600080835482600182811c9150808316806136fd57607f831692505b602080841082141561371d57634e487b7160e01b87526022600452602487fd5b81801561373157600181146137425761376e565b60ff1986168952848901965061376e565b60008a815260209020885b868110156137665781548b82015290850190830161374d565b505084890196505b509498975050505050505050565b6020808252825182820181905260009190848201906040850190845b818110156137b457835183529284019291840191600101613798565b50909695505050505050565b60006020808301818452808551808352604092508286019150828160051b870101848801865b838110156138db57603f1989840301855281516101608151855288820151818a87015261381582870182613604565b915050878201518582038987015261382d8282613604565b915050606080830151868303828801526138478382613604565b92505050608080830151868303828801526138628382613604565b9250505060a080830151818701525060c080830151818701525060e08083015161388e82880182613630565b50506101008281015161ffff169086015261012080830151600081900b82880152505061014091820151916138c78682018460000b9052565b5095880195935050908601906001016137e6565b509098975050505050505050565b602081526000612ede6020830184613604565b60e08152600061390f60e083018a613604565b8281036020840152613921818a613604565b60408401989098525050606081019490945261ffff929092166080840152600090810b60a08401520b60c09091015292915050565b6020808252602c908201527f46756e6374696f6e206d7573742062652063616c6c6564207468726f7567682060408201526b19195b1959d85d1958d85b1b60a21b606082015260800190565b6020808252602c908201527f46756e6374696f6e206d7573742062652063616c6c6564207468726f7567682060408201526b6163746976652070726f787960a01b606082015260800190565b60208082526019908201527f53706f72744f7261636c653a204e6f7420616e2041646d696e00000000000000604082015260600190565b6020808252818101527f4f776e61626c653a2063616c6c6572206973206e6f7420746865206f776e6572604082015260600190565b6020808252602b908201527f496e697469616c697a61626c653a20636f6e7472616374206973206e6f74206960408201526a6e697469616c697a696e6760a81b606082015260800190565b60208082526021908201527f53706f72744f7261636c653a204576656e7420646f6573206e6f7420657869736040820152601d60fa1b606082015260800190565b604051601f8201601f191681016001600160401b0381118282101715613b0e57613b0e613c05565b604052919050565b60006001600160401b03821115613b2f57613b2f613c05565b5060051b60200190565b60008219821115613b4c57613b4c613bef565b500190565b600082821015613b6357613b63613bef565b500390565b60005b83811015613b83578181015183820152602001613b6b565b838111156104825750506000910152565b600181811c90821680613ba857607f821691505b60208210811415613bc957634e487b7160e01b600052602260045260246000fd5b50919050565b600060ff821660ff811415613be657613be6613bef565b60010192915050565b634e487b7160e01b600052601160045260246000fd5b634e487b7160e01b600052604160045260246000fdfe360894a13ba1a3210667c828492db98dca3e2076cc3735a920a3ca505d382bbc416464726573733a206c6f772d6c6576656c2064656c65676174652063616c6c206661696c6564a2646970667358221220d982a4e3f2d084c00c49304b96ba121fa25c2e93eed48e051f426d83150d8e3664736f6c63430008040033",
  "linkReferences": {},
  "deployedLinkReferences": {}
}