{
  "_format": "hh-sol-artifact-1",
  "contractName": "SportPredictionTreasury",
  "sourceName": "contracts/SportPredictionTreasury.sol",
  "abi": [
    {
      "inputs": [],
      "stateMutability": "nonpayable",
      "type": "constructor"
    },
    {
      "anonymous": false,
      "inputs": [
        {
          "indexed": true,
          "internalType": "bytes32",
          "name": "role",
          "type": "bytes32"
        },
        {
          "indexed": true,
          "internalType": "bytes32",
          "name": "previousAdminRole",
          "type": "bytes32"
        },
        {
          "indexed": true,
          "internalType": "bytes32",
          "name": "newAdminRole",
          "type": "bytes32"
        }
      ],
      "name": "RoleAdminChanged",
      "type": "event"
    },
    {
      "anonymous": false,
      "inputs": [
        {
          "indexed": true,
          "internalType": "bytes32",
          "name": "role",
          "type": "bytes32"
        },
        {
          "indexed": true,
          "internalType": "address",
          "name": "account",
          "type": "address"
        },
        {
          "indexed": true,
          "internalType": "address",
          "name": "sender",
          "type": "address"
        }
      ],
      "name": "RoleGranted",
      "type": "event"
    },
    {
      "anonymous": false,
      "inputs": [
        {
          "indexed": true,
          "internalType": "bytes32",
          "name": "role",
          "type": "bytes32"
        },
        {
          "indexed": true,
          "internalType": "address",
          "name": "account",
          "type": "address"
        },
        {
          "indexed": true,
          "internalType": "address",
          "name": "sender",
          "type": "address"
        }
      ],
      "name": "RoleRevoked",
      "type": "event"
    },
    {
      "anonymous": false,
      "inputs": [
        {
          "indexed": false,
          "internalType": "address",
          "name": "_address",
          "type": "address"
        }
      ],
      "name": "SportPredictionSet",
      "type": "event"
    },
    {
      "anonymous": false,
      "inputs": [
        {
          "indexed": true,
          "internalType": "address",
          "name": "user",
          "type": "address"
        },
        {
          "indexed": false,
          "internalType": "uint256",
          "name": "amount",
          "type": "uint256"
        }
      ],
      "name": "Withdraw",
      "type": "event"
    },
    {
      "inputs": [],
      "name": "DEFAULT_ADMIN_ROLE",
      "outputs": [
        {
          "internalType": "bytes32",
          "name": "",
          "type": "bytes32"
        }
      ],
      "stateMutability": "view",
      "type": "function"
    },
    {
      "inputs": [
        {
          "internalType": "bytes32",
          "name": "role",
          "type": "bytes32"
        }
      ],
      "name": "getRoleAdmin",
      "outputs": [
        {
          "internalType": "bytes32",
          "name": "",
          "type": "bytes32"
        }
      ],
      "stateMutability": "view",
      "type": "function"
    },
    {
      "inputs": [
        {
          "internalType": "bytes32",
          "name": "role",
          "type": "bytes32"
        },
        {
          "internalType": "address",
          "name": "account",
          "type": "address"
        }
      ],
      "name": "grantRole",
      "outputs": [],
      "stateMutability": "nonpayable",
      "type": "function"
    },
    {
      "inputs": [
        {
          "internalType": "bytes32",
          "name": "role",
          "type": "bytes32"
        },
        {
          "internalType": "address",
          "name": "account",
          "type": "address"
        }
      ],
      "name": "hasRole",
      "outputs": [
        {
          "internalType": "bool",
          "name": "",
          "type": "bool"
        }
      ],
      "stateMutability": "view",
      "type": "function"
    },
    {
      "inputs": [
        {
          "internalType": "address",
          "name": "account",
          "type": "address"
        }
      ],
      "name": "isAuthorized",
      "outputs": [
        {
          "internalType": "bool",
          "name": "",
          "type": "bool"
        }
      ],
      "stateMutability": "view",
      "type": "function"
    },
    {
      "inputs": [
        {
          "internalType": "bytes32",
          "name": "role",
          "type": "bytes32"
        },
        {
          "internalType": "address",
          "name": "account",
          "type": "address"
        }
      ],
      "name": "renounceRole",
      "outputs": [],
      "stateMutability": "nonpayable",
      "type": "function"
    },
    {
      "inputs": [
        {
          "internalType": "bytes32",
          "name": "role",
          "type": "bytes32"
        },
        {
          "internalType": "address",
          "name": "account",
          "type": "address"
        }
      ],
      "name": "revokeRole",
      "outputs": [],
      "stateMutability": "nonpayable",
      "type": "function"
    },
    {
      "inputs": [
        {
          "internalType": "address",
          "name": "_address",
          "type": "address"
        }
      ],
      "name": "setSportPredictionAddress",
      "outputs": [],
      "stateMutability": "nonpayable",
      "type": "function"
    },
    {
      "inputs": [],
      "name": "sportPrediction",
      "outputs": [
        {
          "internalType": "address",
          "name": "",
          "type": "address"
        }
      ],
      "stateMutability": "view",
      "type": "function"
    },
    {
      "inputs": [
        {
          "internalType": "bytes4",
          "name": "interfaceId",
          "type": "bytes4"
        }
      ],
      "name": "supportsInterface",
      "outputs": [
        {
          "internalType": "bool",
          "name": "",
          "type": "bool"
        }
      ],
      "stateMutability": "view",
      "type": "function"
    },
    {
      "inputs": [
        {
          "internalType": "uint256",
          "name": "_amount",
          "type": "uint256"
        }
      ],
      "name": "withdraw",
      "outputs": [],
      "stateMutability": "nonpayable",
      "type": "function"
    },
    {
      "inputs": [
        {
          "internalType": "address",
          "name": "_token",
          "type": "address"
        },
        {
          "internalType": "address",
          "name": "_to",
          "type": "address"
        },
        {
          "internalType": "uint256",
          "name": "_amount",
          "type": "uint256"
        }
      ],
      "name": "withdrawToken",
      "outputs": [],
      "stateMutability": "nonpayable",
      "type": "function"
    },
    {
      "stateMutability": "payable",
      "type": "receive"
    }
  ],
  "bytecode": "0x608060405234801561001057600080fd5b50610026673232b83637bcb2b960c11b3361002b565b6100d7565b6100358282610039565b5050565b6000828152602081815260408083206001600160a01b038516845290915290205460ff16610035576000828152602081815260408083206001600160a01b03851684529091529020805460ff191660011790556100933390565b6001600160a01b0316816001600160a01b0316837f2f8788117e7eff1d82e926ec794901d17c78024a50270940304540a733656f0d60405160405180910390a45050565b610e6c806100e66000396000f3fe6080604052600436106100ab5760003560e01c806336568abe1161006457806336568abe146101c45780636f991410146101e457806391d1485414610204578063a217fddf14610224578063d547741f14610239578063fe9fbb801461025957600080fd5b806301e33667146100b757806301ffc9a7146100d9578063248a9ca31461010e5780632e1a7d4d1461014c5780632f2ff15d1461016c5780633397a9c01461018c57600080fd5b366100b257005b600080fd5b3480156100c357600080fd5b506100d76100d2366004610c18565b610279565b005b3480156100e557600080fd5b506100f96100f4366004610cb6565b610355565b60405190151581526020015b60405180910390f35b34801561011a57600080fd5b5061013e610129366004610c73565b60009081526020819052604090206001015490565b604051908152602001610105565b34801561015857600080fd5b506100d7610167366004610c73565b61038c565b34801561017857600080fd5b506100d7610187366004610c8b565b610409565b34801561019857600080fd5b506001546101ac906001600160a01b031681565b6040516001600160a01b039091168152602001610105565b3480156101d057600080fd5b506100d76101df366004610c8b565b610434565b3480156101f057600080fd5b506100d76101ff366004610bfe565b6104b2565b34801561021057600080fd5b506100f961021f366004610c8b565b61056c565b34801561023057600080fd5b5061013e600081565b34801561024557600080fd5b506100d7610254366004610c8b565b610595565b34801561026557600080fd5b506100f9610274366004610bfe565b6105bb565b610282336105bb565b6102f95760405162461bcd60e51b815260206004820152603f60248201527f53706f727450726564696374696f6e54726561737572793a526573747269637460448201527f656420746f206f6e6c7920617574686f72697a6564206163636f756e74732e0060648201526084015b60405180910390fd5b61030d6001600160a01b0384168383610610565b816001600160a01b03167f884edad9ce6fa2440d8a54cc123490eb96d2768479d49ff9c7366125a94243648260405161034891815260200190565b60405180910390a2505050565b60006001600160e01b03198216637965db0b60e01b148061038657506301ffc9a760e01b6001600160e01b03198316145b92915050565b673232b83637bcb2b960c11b6103a28133610662565b604051339083156108fc029084906000818181858888f193505050501580156103cf573d6000803e3d6000fd5b5060405182815233907f884edad9ce6fa2440d8a54cc123490eb96d2768479d49ff9c7366125a94243649060200160405180910390a25050565b6000828152602081905260409020600101546104258133610662565b61042f83836106c6565b505050565b6001600160a01b03811633146104a45760405162461bcd60e51b815260206004820152602f60248201527f416363657373436f6e74726f6c3a2063616e206f6e6c792072656e6f756e636560448201526e103937b632b9903337b91039b2b63360891b60648201526084016102f0565b6104ae828261074a565b5050565b673232b83637bcb2b960c11b6104c88133610662565b6001546104f1906e39b837b93a283932b234b1ba34b7b760891b906001600160a01b031661074a565b600180546001600160a01b0319166001600160a01b03841690811790915561052c906e39b837b93a283932b234b1ba34b7b760891b906106c6565b6040516001600160a01b03831681527fb2b8f0c789e81bfd8ee09a2ca29d11301dcb8bf3aa162a8adcd981ddc05cec639060200160405180910390a15050565b6000918252602082815260408084206001600160a01b0393909316845291905290205460ff1690565b6000828152602081905260409020600101546105b18133610662565b61042f838361074a565b60006105d2673232b83637bcb2b960c11b8361056c565b156105df57506001919050565b6105fb6e39b837b93a283932b234b1ba34b7b760891b8361056c565b1561060857506001919050565b506000919050565b604080516001600160a01b038416602482015260448082018490528251808303909101815260649091019091526020810180516001600160e01b031663a9059cbb60e01b17905261042f9084906107af565b61066c828261056c565b6104ae57610684816001600160a01b03166014610881565b61068f836020610881565b6040516020016106a0929190610cfa565b60408051601f198184030181529082905262461bcd60e51b82526102f091600401610d6f565b6106d0828261056c565b6104ae576000828152602081815260408083206001600160a01b03851684529091529020805460ff191660011790556107063390565b6001600160a01b0316816001600160a01b0316837f2f8788117e7eff1d82e926ec794901d17c78024a50270940304540a733656f0d60405160405180910390a45050565b610754828261056c565b156104ae576000828152602081815260408083206001600160a01b0385168085529252808320805460ff1916905551339285917ff6391f5c32d9c69d2a47ea670b442974b53935d1edc7fd64eb21e047a839171b9190a45050565b6000610804826040518060400160405280602081526020017f5361666545524332303a206c6f772d6c6576656c2063616c6c206661696c6564815250856001600160a01b0316610a6a9092919063ffffffff16565b80519091501561042f57808060200190518101906108229190610c53565b61042f5760405162461bcd60e51b815260206004820152602a60248201527f5361666545524332303a204552433230206f7065726174696f6e20646964206e6044820152691bdd081cdd58d8d9595960b21b60648201526084016102f0565b60606000610890836002610dba565b61089b906002610da2565b67ffffffffffffffff8111156108c157634e487b7160e01b600052604160045260246000fd5b6040519080825280601f01601f1916602001820160405280156108eb576020820181803683370190505b509050600360fc1b8160008151811061091457634e487b7160e01b600052603260045260246000fd5b60200101906001600160f81b031916908160001a905350600f60fb1b8160018151811061095157634e487b7160e01b600052603260045260246000fd5b60200101906001600160f81b031916908160001a9053506000610975846002610dba565b610980906001610da2565b90505b6001811115610a14576f181899199a1a9b1b9c1cb0b131b232b360811b85600f16601081106109c257634e487b7160e01b600052603260045260246000fd5b1a60f81b8282815181106109e657634e487b7160e01b600052603260045260246000fd5b60200101906001600160f81b031916908160001a90535060049490941c93610a0d81610e09565b9050610983565b508315610a635760405162461bcd60e51b815260206004820181905260248201527f537472696e67733a20686578206c656e67746820696e73756666696369656e7460448201526064016102f0565b9392505050565b6060610a798484600085610a81565b949350505050565b606082471015610ae25760405162461bcd60e51b815260206004820152602660248201527f416464726573733a20696e73756666696369656e742062616c616e636520666f6044820152651c8818d85b1b60d21b60648201526084016102f0565b843b610b305760405162461bcd60e51b815260206004820152601d60248201527f416464726573733a2063616c6c20746f206e6f6e2d636f6e747261637400000060448201526064016102f0565b600080866001600160a01b03168587604051610b4c9190610cde565b60006040518083038185875af1925050503d8060008114610b89576040519150601f19603f3d011682016040523d82523d6000602084013e610b8e565b606091505b5091509150610b9e828286610ba9565b979650505050505050565b60608315610bb8575081610a63565b825115610bc85782518084602001fd5b8160405162461bcd60e51b81526004016102f09190610d6f565b80356001600160a01b0381168114610bf957600080fd5b919050565b600060208284031215610c0f578081fd5b610a6382610be2565b600080600060608486031215610c2c578182fd5b610c3584610be2565b9250610c4360208501610be2565b9150604084013590509250925092565b600060208284031215610c64578081fd5b81518015158114610a63578182fd5b600060208284031215610c84578081fd5b5035919050565b60008060408385031215610c9d578182fd5b82359150610cad60208401610be2565b90509250929050565b600060208284031215610cc7578081fd5b81356001600160e01b031981168114610a63578182fd5b60008251610cf0818460208701610dd9565b9190910192915050565b7f416363657373436f6e74726f6c3a206163636f756e7420000000000000000000815260008351610d32816017850160208801610dd9565b7001034b99036b4b9b9b4b733903937b6329607d1b6017918401918201528351610d63816028840160208801610dd9565b01602801949350505050565b6020815260008251806020840152610d8e816040850160208701610dd9565b601f01601f19169190910160400192915050565b60008219821115610db557610db5610e20565b500190565b6000816000190483118215151615610dd457610dd4610e20565b500290565b60005b83811015610df4578181015183820152602001610ddc565b83811115610e03576000848401525b50505050565b600081610e1857610e18610e20565b506000190190565b634e487b7160e01b600052601160045260246000fdfea264697066735822122092862311cae2eeab4d514895164e92cb637fb01d50ebdd105d1ac2003129a73b64736f6c63430008040033",
  "linkReferences": {},
  "deployedLinkReferences": {}
}