{
  "_format": "hh-sol-artifact-1",
  "contractName": "SportPrediction",
  "sourceName": "contracts/SportPrediction.sol",
  "abi": [
    {
      "anonymous": false,
      "inputs": [
        {
          "indexed": false,
          "internalType": "address",
          "name": "previousAdmin",
          "type": "address"
        },
        {
          "indexed": false,
          "internalType": "address",
          "name": "newAdmin",
          "type": "address"
        }
      ],
      "name": "AdminChanged",
      "type": "event"
    },
    {
      "anonymous": false,
      "inputs": [
        {
          "indexed": true,
          "internalType": "address",
          "name": "beacon",
          "type": "address"
        }
      ],
      "name": "BeaconUpgraded",
      "type": "event"
    },
    {
      "anonymous": false,
      "inputs": [
        {
          "indexed": true,
          "internalType": "address",
          "name": "user",
          "type": "address"
        },
        {
          "indexed": true,
          "internalType": "bytes32",
          "name": "eventId",
          "type": "bytes32"
        },
        {
          "indexed": false,
          "internalType": "uint256",
          "name": "reward",
          "type": "uint256"
        }
      ],
      "name": "Claim",
      "type": "event"
    },
    {
      "anonymous": false,
      "inputs": [
        {
          "indexed": false,
          "internalType": "uint256",
          "name": "_maxPredictions",
          "type": "uint256"
        }
      ],
      "name": "MaxPredictionsSet",
      "type": "event"
    },
    {
      "anonymous": false,
      "inputs": [
        {
          "indexed": false,
          "internalType": "uint256",
          "name": "multiplier",
          "type": "uint256"
        }
      ],
      "name": "MultiplierSet",
      "type": "event"
    },
    {
      "anonymous": false,
      "inputs": [
        {
          "indexed": false,
          "internalType": "address",
          "name": "_address",
          "type": "address"
        }
      ],
      "name": "OracleAddressSet",
      "type": "event"
    },
    {
      "anonymous": false,
      "inputs": [
        {
          "indexed": true,
          "internalType": "address",
          "name": "previousOwner",
          "type": "address"
        },
        {
          "indexed": true,
          "internalType": "address",
          "name": "newOwner",
          "type": "address"
        }
      ],
      "name": "OwnershipTransferred",
      "type": "event"
    },
    {
      "anonymous": false,
      "inputs": [
        {
          "indexed": false,
          "internalType": "uint256",
          "name": "_address",
          "type": "uint256"
        }
      ],
      "name": "PredictAmountSet",
      "type": "event"
    },
    {
      "anonymous": false,
      "inputs": [
        {
          "indexed": true,
          "internalType": "bytes32",
          "name": "_eventId",
          "type": "bytes32"
        },
        {
          "indexed": true,
          "internalType": "address",
          "name": "_player",
          "type": "address"
        },
        {
          "indexed": false,
          "internalType": "int8",
          "name": "_teamAScore",
          "type": "int8"
        },
        {
          "indexed": false,
          "internalType": "int8",
          "name": "_teamBScore",
          "type": "int8"
        },
        {
          "indexed": false,
          "internalType": "uint256",
          "name": "_amount",
          "type": "uint256"
        }
      ],
      "name": "PredictionPlaced",
      "type": "event"
    },
    {
      "anonymous": false,
      "inputs": [
        {
          "indexed": false,
          "internalType": "address",
          "name": "_address",
          "type": "address"
        }
      ],
      "name": "TreasuryAddressSet",
      "type": "event"
    },
    {
      "anonymous": false,
      "inputs": [
        {
          "indexed": true,
          "internalType": "address",
          "name": "implementation",
          "type": "address"
        }
      ],
      "name": "Upgraded",
      "type": "event"
    },
    {
      "inputs": [
        {
          "internalType": "bytes32[]",
          "name": "_eventIds",
          "type": "bytes32[]"
        }
      ],
      "name": "claim",
      "outputs": [],
      "stateMutability": "nonpayable",
      "type": "function"
    },
    {
      "inputs": [],
      "name": "crp",
      "outputs": [
        {
          "internalType": "contract IERC20Upgradeable",
          "name": "",
          "type": "address"
        }
      ],
      "stateMutability": "view",
      "type": "function"
    },
    {
      "inputs": [
        {
          "internalType": "bytes32",
          "name": "",
          "type": "bytes32"
        },
        {
          "internalType": "address",
          "name": "",
          "type": "address"
        }
      ],
      "name": "eventToUserPrediction",
      "outputs": [
        {
          "internalType": "address",
          "name": "user",
          "type": "address"
        },
        {
          "internalType": "bytes32",
          "name": "eventId",
          "type": "bytes32"
        },
        {
          "internalType": "uint256",
          "name": "amount",
          "type": "uint256"
        },
        {
          "internalType": "uint256",
          "name": "reward",
          "type": "uint256"
        },
        {
          "internalType": "int8",
          "name": "teamAScore",
          "type": "int8"
        },
        {
          "internalType": "int8",
          "name": "teamBScore",
          "type": "int8"
        },
        {
          "internalType": "bool",
          "name": "predicted",
          "type": "bool"
        },
        {
          "internalType": "bool",
          "name": "claimed",
          "type": "bool"
        }
      ],
      "stateMutability": "view",
      "type": "function"
    },
    {
      "inputs": [
        {
          "internalType": "bytes32",
          "name": "",
          "type": "bytes32"
        },
        {
          "internalType": "uint256",
          "name": "",
          "type": "uint256"
        }
      ],
      "name": "eventToUsers",
      "outputs": [
        {
          "internalType": "address",
          "name": "",
          "type": "address"
        }
      ],
      "stateMutability": "view",
      "type": "function"
    },
    {
      "inputs": [
        {
          "internalType": "address",
          "name": "_user",
          "type": "address"
        }
      ],
      "name": "getAllUserPredictions",
      "outputs": [
        {
          "components": [
            {
              "internalType": "address",
              "name": "user",
              "type": "address"
            },
            {
              "internalType": "bytes32",
              "name": "eventId",
              "type": "bytes32"
            },
            {
              "internalType": "uint256",
              "name": "amount",
              "type": "uint256"
            },
            {
              "internalType": "uint256",
              "name": "reward",
              "type": "uint256"
            },
            {
              "internalType": "int8",
              "name": "teamAScore",
              "type": "int8"
            },
            {
              "internalType": "int8",
              "name": "teamBScore",
              "type": "int8"
            },
            {
              "internalType": "bool",
              "name": "predicted",
              "type": "bool"
            },
            {
              "internalType": "bool",
              "name": "claimed",
              "type": "bool"
            }
          ],
          "internalType": "struct SportPrediction.Prediction[]",
          "name": "",
          "type": "tuple[]"
        }
      ],
      "stateMutability": "view",
      "type": "function"
    },
    {
      "inputs": [
        {
          "internalType": "bytes32[]",
          "name": "_eventIds",
          "type": "bytes32[]"
        }
      ],
      "name": "getEvents",
      "outputs": [
        {
          "components": [
            {
              "internalType": "bytes32",
              "name": "id",
              "type": "bytes32"
            },
            {
              "internalType": "bytes",
              "name": "teamA",
              "type": "bytes"
            },
            {
              "internalType": "bytes",
              "name": "teamB",
              "type": "bytes"
            },
            {
              "internalType": "bytes",
              "name": "league",
              "type": "bytes"
            },
            {
              "internalType": "bytes",
              "name": "round",
              "type": "bytes"
            },
            {
              "internalType": "uint256",
              "name": "startTimestamp",
              "type": "uint256"
            },
            {
              "internalType": "uint256",
              "name": "endTimestamp",
              "type": "uint256"
            },
            {
              "internalType": "enum ISportPrediction.EventOutcome",
              "name": "outcome",
              "type": "uint8"
            },
            {
              "internalType": "uint16",
              "name": "season",
              "type": "uint16"
            },
            {
              "internalType": "int8",
              "name": "realTeamAScore",
              "type": "int8"
            },
            {
              "internalType": "int8",
              "name": "realTeamBScore",
              "type": "int8"
            }
          ],
          "internalType": "struct ISportPrediction.SportEvent[]",
          "name": "",
          "type": "tuple[]"
        }
      ],
      "stateMutability": "view",
      "type": "function"
    },
    {
      "inputs": [],
      "name": "getEventsLength",
      "outputs": [
        {
          "internalType": "uint256",
          "name": "",
          "type": "uint256"
        }
      ],
      "stateMutability": "view",
      "type": "function"
    },
    {
      "inputs": [
        {
          "internalType": "uint256[]",
          "name": "indexes",
          "type": "uint256[]"
        }
      ],
      "name": "getIndexedEvents",
      "outputs": [
        {
          "components": [
            {
              "internalType": "bytes32",
              "name": "id",
              "type": "bytes32"
            },
            {
              "internalType": "bytes",
              "name": "teamA",
              "type": "bytes"
            },
            {
              "internalType": "bytes",
              "name": "teamB",
              "type": "bytes"
            },
            {
              "internalType": "bytes",
              "name": "league",
              "type": "bytes"
            },
            {
              "internalType": "bytes",
              "name": "round",
              "type": "bytes"
            },
            {
              "internalType": "uint256",
              "name": "startTimestamp",
              "type": "uint256"
            },
            {
              "internalType": "uint256",
              "name": "endTimestamp",
              "type": "uint256"
            },
            {
              "internalType": "enum ISportPrediction.EventOutcome",
              "name": "outcome",
              "type": "uint8"
            },
            {
              "internalType": "uint16",
              "name": "season",
              "type": "uint16"
            },
            {
              "internalType": "int8",
              "name": "realTeamAScore",
              "type": "int8"
            },
            {
              "internalType": "int8",
              "name": "realTeamBScore",
              "type": "int8"
            }
          ],
          "internalType": "struct ISportPrediction.SportEvent[]",
          "name": "",
          "type": "tuple[]"
        }
      ],
      "stateMutability": "view",
      "type": "function"
    },
    {
      "inputs": [],
      "name": "getLiveEvents",
      "outputs": [
        {
          "components": [
            {
              "internalType": "bytes32",
              "name": "id",
              "type": "bytes32"
            },
            {
              "internalType": "bytes",
              "name": "teamA",
              "type": "bytes"
            },
            {
              "internalType": "bytes",
              "name": "teamB",
              "type": "bytes"
            },
            {
              "internalType": "bytes",
              "name": "league",
              "type": "bytes"
            },
            {
              "internalType": "bytes",
              "name": "round",
              "type": "bytes"
            },
            {
              "internalType": "uint256",
              "name": "startTimestamp",
              "type": "uint256"
            },
            {
              "internalType": "uint256",
              "name": "endTimestamp",
              "type": "uint256"
            },
            {
              "internalType": "enum ISportPrediction.EventOutcome",
              "name": "outcome",
              "type": "uint8"
            },
            {
              "internalType": "uint16",
              "name": "season",
              "type": "uint16"
            },
            {
              "internalType": "int8",
              "name": "realTeamAScore",
              "type": "int8"
            },
            {
              "internalType": "int8",
              "name": "realTeamBScore",
              "type": "int8"
            }
          ],
          "internalType": "struct ISportPrediction.SportEvent[]",
          "name": "",
          "type": "tuple[]"
        }
      ],
      "stateMutability": "view",
      "type": "function"
    },
    {
      "inputs": [],
      "name": "getMultiplier",
      "outputs": [
        {
          "internalType": "uint256",
          "name": "",
          "type": "uint256"
        }
      ],
      "stateMutability": "view",
      "type": "function"
    },
    {
      "inputs": [],
      "name": "getPredictableEvents",
      "outputs": [
        {
          "components": [
            {
              "internalType": "bytes32",
              "name": "id",
              "type": "bytes32"
            },
            {
              "internalType": "bytes",
              "name": "teamA",
              "type": "bytes"
            },
            {
              "internalType": "bytes",
              "name": "teamB",
              "type": "bytes"
            },
            {
              "internalType": "bytes",
              "name": "league",
              "type": "bytes"
            },
            {
              "internalType": "bytes",
              "name": "round",
              "type": "bytes"
            },
            {
              "internalType": "uint256",
              "name": "startTimestamp",
              "type": "uint256"
            },
            {
              "internalType": "uint256",
              "name": "endTimestamp",
              "type": "uint256"
            },
            {
              "internalType": "enum ISportPrediction.EventOutcome",
              "name": "outcome",
              "type": "uint8"
            },
            {
              "internalType": "uint16",
              "name": "season",
              "type": "uint16"
            },
            {
              "internalType": "int8",
              "name": "realTeamAScore",
              "type": "int8"
            },
            {
              "internalType": "int8",
              "name": "realTeamBScore",
              "type": "int8"
            }
          ],
          "internalType": "struct ISportPrediction.SportEvent[]",
          "name": "",
          "type": "tuple[]"
        }
      ],
      "stateMutability": "view",
      "type": "function"
    },
    {
      "inputs": [
        {
          "internalType": "bytes32",
          "name": "_eventId",
          "type": "bytes32"
        }
      ],
      "name": "getPredictions",
      "outputs": [
        {
          "components": [
            {
              "internalType": "address",
              "name": "user",
              "type": "address"
            },
            {
              "internalType": "bytes32",
              "name": "eventId",
              "type": "bytes32"
            },
            {
              "internalType": "uint256",
              "name": "amount",
              "type": "uint256"
            },
            {
              "internalType": "uint256",
              "name": "reward",
              "type": "uint256"
            },
            {
              "internalType": "int8",
              "name": "teamAScore",
              "type": "int8"
            },
            {
              "internalType": "int8",
              "name": "teamBScore",
              "type": "int8"
            },
            {
              "internalType": "bool",
              "name": "predicted",
              "type": "bool"
            },
            {
              "internalType": "bool",
              "name": "claimed",
              "type": "bool"
            }
          ],
          "internalType": "struct SportPrediction.Prediction[]",
          "name": "",
          "type": "tuple[]"
        }
      ],
      "stateMutability": "view",
      "type": "function"
    },
    {
      "inputs": [
        {
          "internalType": "address",
          "name": "_user",
          "type": "address"
        },
        {
          "internalType": "bytes32[]",
          "name": "_eventIds",
          "type": "bytes32[]"
        }
      ],
      "name": "getUserPredictions",
      "outputs": [
        {
          "components": [
            {
              "internalType": "address",
              "name": "user",
              "type": "address"
            },
            {
              "internalType": "bytes32",
              "name": "eventId",
              "type": "bytes32"
            },
            {
              "internalType": "uint256",
              "name": "amount",
              "type": "uint256"
            },
            {
              "internalType": "uint256",
              "name": "reward",
              "type": "uint256"
            },
            {
              "internalType": "int8",
              "name": "teamAScore",
              "type": "int8"
            },
            {
              "internalType": "int8",
              "name": "teamBScore",
              "type": "int8"
            },
            {
              "internalType": "bool",
              "name": "predicted",
              "type": "bool"
            },
            {
              "internalType": "bool",
              "name": "claimed",
              "type": "bool"
            }
          ],
          "internalType": "struct SportPrediction.Prediction[]",
          "name": "",
          "type": "tuple[]"
        }
      ],
      "stateMutability": "view",
      "type": "function"
    },
    {
      "inputs": [
        {
          "internalType": "address",
          "name": "_oracleAddress",
          "type": "address"
        },
        {
          "internalType": "address",
          "name": "_treasuryAddress",
          "type": "address"
        },
        {
          "internalType": "contract IERC20Upgradeable",
          "name": "_crp",
          "type": "address"
        },
        {
          "internalType": "uint256",
          "name": "_predictAmount",
          "type": "uint256"
        },
        {
          "internalType": "uint256",
          "name": "_multiplier",
          "type": "uint256"
        },
        {
          "internalType": "uint256",
          "name": "_maxPredictions",
          "type": "uint256"
        }
      ],
      "name": "initialize",
      "outputs": [],
      "stateMutability": "nonpayable",
      "type": "function"
    },
    {
      "inputs": [],
      "name": "maxPredictions",
      "outputs": [
        {
          "internalType": "uint256",
          "name": "",
          "type": "uint256"
        }
      ],
      "stateMutability": "view",
      "type": "function"
    },
    {
      "inputs": [],
      "name": "owner",
      "outputs": [
        {
          "internalType": "address",
          "name": "",
          "type": "address"
        }
      ],
      "stateMutability": "view",
      "type": "function"
    },
    {
      "inputs": [
        {
          "internalType": "bytes32",
          "name": "_eventId",
          "type": "bytes32"
        },
        {
          "internalType": "int8",
          "name": "_teamAScore",
          "type": "int8"
        },
        {
          "internalType": "int8",
          "name": "_teamBScore",
          "type": "int8"
        }
      ],
      "name": "predict",
      "outputs": [],
      "stateMutability": "nonpayable",
      "type": "function"
    },
    {
      "inputs": [],
      "name": "predictAmount",
      "outputs": [
        {
          "internalType": "uint256",
          "name": "",
          "type": "uint256"
        }
      ],
      "stateMutability": "view",
      "type": "function"
    },
    {
      "inputs": [],
      "name": "proxiableUUID",
      "outputs": [
        {
          "internalType": "bytes32",
          "name": "",
          "type": "bytes32"
        }
      ],
      "stateMutability": "view",
      "type": "function"
    },
    {
      "inputs": [],
      "name": "renounceOwnership",
      "outputs": [],
      "stateMutability": "nonpayable",
      "type": "function"
    },
    {
      "inputs": [
        {
          "internalType": "uint256",
          "name": "_maxPredictions",
          "type": "uint256"
        }
      ],
      "name": "setMaxPredictions",
      "outputs": [],
      "stateMutability": "nonpayable",
      "type": "function"
    },
    {
      "inputs": [
        {
          "internalType": "uint256",
          "name": "_multiplier",
          "type": "uint256"
        }
      ],
      "name": "setMultiplier",
      "outputs": [],
      "stateMutability": "nonpayable",
      "type": "function"
    },
    {
      "inputs": [
        {
          "internalType": "address",
          "name": "_oracleAddress",
          "type": "address"
        }
      ],
      "name": "setOracleAddress",
      "outputs": [],
      "stateMutability": "nonpayable",
      "type": "function"
    },
    {
      "inputs": [
        {
          "internalType": "uint256",
          "name": "_predictAmount",
          "type": "uint256"
        }
      ],
      "name": "setPredictAmount",
      "outputs": [],
      "stateMutability": "nonpayable",
      "type": "function"
    },
    {
      "inputs": [
        {
          "internalType": "address",
          "name": "_treasuryAddress",
          "type": "address"
        }
      ],
      "name": "setTreasuryAddress",
      "outputs": [],
      "stateMutability": "nonpayable",
      "type": "function"
    },
    {
      "inputs": [],
      "name": "sportOracle",
      "outputs": [
        {
          "internalType": "contract ISportPrediction",
          "name": "",
          "type": "address"
        }
      ],
      "stateMutability": "view",
      "type": "function"
    },
    {
      "inputs": [
        {
          "internalType": "address",
          "name": "newOwner",
          "type": "address"
        }
      ],
      "name": "transferOwnership",
      "outputs": [],
      "stateMutability": "nonpayable",
      "type": "function"
    },
    {
      "inputs": [],
      "name": "treasury",
      "outputs": [
        {
          "internalType": "contract ISportPredictionTreasury",
          "name": "",
          "type": "address"
        }
      ],
      "stateMutability": "view",
      "type": "function"
    },
    {
      "inputs": [
        {
          "internalType": "address",
          "name": "newImplementation",
          "type": "address"
        }
      ],
      "name": "upgradeTo",
      "outputs": [],
      "stateMutability": "nonpayable",
      "type": "function"
    },
    {
      "inputs": [
        {
          "internalType": "address",
          "name": "newImplementation",
          "type": "address"
        },
        {
          "internalType": "bytes",
          "name": "data",
          "type": "bytes"
        }
      ],
      "name": "upgradeToAndCall",
      "outputs": [],
      "stateMutability": "payable",
      "type": "function"
    },
    {
      "inputs": [
        {
          "internalType": "address",
          "name": "_user",
          "type": "address"
        },
        {
          "internalType": "bytes32[]",
          "name": "_eventIds",
          "type": "bytes32[]"
        }
      ],
      "name": "userPredictStatus",
      "outputs": [
        {
          "internalType": "bool[]",
          "name": "",
          "type": "bool[]"
        }
      ],
      "stateMutability": "view",
      "type": "function"
    },
    {
      "inputs": [
        {
          "internalType": "address",
          "name": "",
          "type": "address"
        },
        {
          "internalType": "uint256",
          "name": "",
          "type": "uint256"
        }
      ],
      "name": "userToEvents",
      "outputs": [
        {
          "internalType": "bytes32",
          "name": "",
          "type": "bytes32"
        }
      ],
      "stateMutability": "view",
      "type": "function"
    }
  ],
  "bytecode": "0x60a06040523060601b60805234801561001757600080fd5b5060805160601c613737610052600039600081816109ec01528181610a2c015281816110240152818161106401526110f701526137376000f3fe6080604052600436106101e35760003560e01c8063641579a611610102578063965a278611610095578063c573a5d611610064578063c573a5d61461061b578063cedc1f7b14610632578063f2fde38b14610652578063fc572b9a1461067257600080fd5b8063965a2786146105a65780639eeec83e146105c6578063b391c508146105e6578063bb6515e41461060657600080fd5b80638d6d032f116100d15780638d6d032f146105335780638da5cb5b146105485780638e32d4311461056657806394fd2e5b1461058657600080fd5b8063641579a6146104be5780636605bfda146104de578063715018a6146104fe578063728cdbca1461051357600080fd5b80633fd8108e1161017a5780634f1ef286116101495780634f1ef2861461045657806352d1902d146104695780635c453e461461047e57806361d027b31461049e57600080fd5b80633fd8108e146103ec57806340490a901461040c57806347fc216e146104215780634c69c00f1461043657600080fd5b806333290e4f116101b657806333290e4f1461033a5780633659cfe6146103675780633760fe8f146103875780633f8bafd3146103b457600080fd5b806304684b11146101e8578063084bab211461021b5780630f46a9a0146102485780632a097f8e14610318575b600080fd5b3480156101f457600080fd5b50610208610203366004612d58565b610688565b6040519081526020015b60405180910390f35b34801561022757600080fd5b5061023b610236366004612c04565b6106ba565b60405161021291906131c9565b34801561025457600080fd5b506102c9610263366004613050565b610101602090815260009283526040808420909152908252812080546001820154600283015460038401546004909401546001600160a01b039093169491939092909181810b91610100810490910b9060ff620100008204811691630100000090041688565b604080516001600160a01b0390991689526020890197909752958701949094526060860192909252600090810b60808601520b60a0840152151560c0830152151560e082015261010001610212565b34801561032457600080fd5b50610338610333366004613020565b610870565b005b34801561034657600080fd5b5061035a610355366004612f6e565b610956565b6040516102129190613267565b34801561037357600080fd5b50610338610382366004612c04565b6109e1565b34801561039357600080fd5b506103a76103a2366004612c84565b610ac1565b604051610212919061314b565b3480156103c057600080fd5b506103d46103cf3660046130c0565b610eb7565b6040516001600160a01b039091168152602001610212565b3480156103f857600080fd5b5060fb546103d4906001600160a01b031681565b34801561041857600080fd5b5060ff54610208565b34801561042d57600080fd5b50610208610ef0565b34801561044257600080fd5b50610338610451366004612c04565b610f72565b610338610464366004612cd1565b611019565b34801561047557600080fd5b506102086110ea565b34801561048a57600080fd5b5061023b610499366004612c84565b61119d565b3480156104aa57600080fd5b5060fd546103d4906001600160a01b031681565b3480156104ca57600080fd5b506103386104d9366004613020565b6113e3565b3480156104ea57600080fd5b506103386104f9366004612c04565b6114b8565b34801561050a57600080fd5b50610338611557565b34801561051f57600080fd5b5061033861052e366004612c20565b61158d565b34801561053f57600080fd5b5061035a6116a1565b34801561055457600080fd5b506097546001600160a01b03166103d4565b34801561057257600080fd5b5061023b610581366004613020565b611722565b34801561059257600080fd5b5061035a6105a1366004612d83565b6118be565b3480156105b257600080fd5b5060fc546103d4906001600160a01b031681565b3480156105d257600080fd5b506103386105e136600461307f565b6118ef565b3480156105f257600080fd5b50610338610601366004612d83565b611df2565b34801561061257600080fd5b5061035a612308565b34801561062757600080fd5b506102086101005481565b34801561063e57600080fd5b5061033861064d366004613020565b61234d565b34801561065e57600080fd5b5061033861066d366004612c04565b612422565b34801561067e57600080fd5b5061020860fe5481565b61010260205281600052604060002081815481106106a557600080fd5b90600052602060002001600091509150505481565b6001600160a01b03811660009081526101026020526040812054606091816001600160401b038111156106fd57634e487b7160e01b600052604160045260246000fd5b60405190808252806020026020018201604052801561073657816020015b610723612ad5565b81526020019060019003908161071b5790505b50905060005b82811015610868576001600160a01b03851660009081526101026020526040812080546101019291908490811061078357634e487b7160e01b600052603260045260246000fd5b6000918252602080832090910154835282810193909352604091820181206001600160a01b03808a16835290845282822083516101008082018652825490931681526001820154958101959095526002810154938501939093526003830154606085015260049092015480820b820b820b6080850152918204810b810b900b60a083015260ff6201000082048116151560c0840152630100000090910416151560e0820152825183908390811061084a57634e487b7160e01b600052603260045260246000fd5b602002602001018190525080806108609061364f565b91505061073c565b509392505050565b6097546001600160a01b031633146108a35760405162461bcd60e51b815260040161089a90613480565b60405180910390fd5b600081116109195760405162461bcd60e51b815260206004820152603960248201527f53706f727450726564696374696f6e3a204d61782070726564696374696f6e7360448201527f2073686f756c642062652067726561746572207468616e203000000000000000606482015260840161089a565b6101008190556040518181527f197e0ab3a375961a02721382dd2367c79066e82d1cfea0bf34340764f478cf7b906020015b60405180910390a150565b60fc546040516333290e4f60e01b81526060916001600160a01b0316906333290e4f90610987908590600401613191565b60006040518083038186803b15801561099f57600080fd5b505afa1580156109b3573d6000803e3d6000fd5b505050506040513d6000823e601f3d908101601f191682016040526109db9190810190612db5565b92915050565b306001600160a01b037f0000000000000000000000000000000000000000000000000000000000000000161415610a2a5760405162461bcd60e51b815260040161089a906133a3565b7f00000000000000000000000000000000000000000000000000000000000000006001600160a01b0316610a736000805160206136bb833981519152546001600160a01b031690565b6001600160a01b031614610a995760405162461bcd60e51b815260040161089a90613434565b610aa2816124ba565b60408051600080825260208201909252610abe918391906124e4565b50565b6060600082516001600160401b03811115610aec57634e487b7160e01b600052604160045260246000fd5b604051908082528060200260200182016040528015610b15578160200160208202803683370190505b5060fc546040516394fd2e5b60e01b81529192506000916001600160a01b03909116906394fd2e5b90610b4c908790600401613191565b60006040518083038186803b158015610b6457600080fd5b505afa158015610b78573d6000803e3d6000fd5b505050506040513d6000823e601f3d908101601f19168201604052610ba09190810190612db5565b905060005b8451811015610ead5760fc5485516001600160a01b039091169063118e58bd90879084908110610be557634e487b7160e01b600052603260045260246000fd5b60200260200101516040518263ffffffff1660e01b8152600401610c0b91815260200190565b60206040518083038186803b158015610c2357600080fd5b505afa158015610c37573d6000803e3d6000fd5b505050506040513d601f19601f82011682018060405250810190610c5b9190613000565b610c775760405162461bcd60e51b815260040161089a906133ef565b60006101016000878481518110610c9e57634e487b7160e01b600052603260045260246000fd5b602090810291909101810151825281810192909252604090810160009081206001600160a01b03808c16835290845282822083516101008082018652825490931681526001820154958101959095526002810154938501939093526003830154606085015260049092015480820b820b820b6080850152918204810b810b900b60a083015260ff6201000082048116151560c08401819052630100000090920416151560e0830152909150610db15760405162461bcd60e51b815260206004820152603360248201527f53706f727450726564696374696f6e3a205573657220646964206e6f7420707260448201527219591a58dd081bdb881d1a1a5cc8195d995b9d606a1b606482015260840161089a565b828281518110610dd157634e487b7160e01b600052603260045260246000fd5b6020026020010151610120015160000b816080015160000b148015610e2b5750828281518110610e1157634e487b7160e01b600052603260045260246000fd5b6020026020010151610140015160000b8160a0015160000b145b15610e67576001848381518110610e5257634e487b7160e01b600052603260045260246000fd5b91151560209283029190910190910152610e9a565b6000848381518110610e8957634e487b7160e01b600052603260045260246000fd5b911515602092830291909101909101525b50610ea68160016135ec565b9050610ba5565b5090949350505050565b6101036020528160005260406000208181548110610ed457600080fd5b6000918252602090912001546001600160a01b03169150829050565b60fc54604080516323fe10b760e11b815290516000926001600160a01b0316916347fc216e916004808301926020929190829003018186803b158015610f3557600080fd5b505afa158015610f49573d6000803e3d6000fd5b505050506040513d601f19601f82011682018060405250810190610f6d9190613038565b905090565b6097546001600160a01b03163314610f9c5760405162461bcd60e51b815260040161089a90613480565b806001600160a01b038116610fc35760405162461bcd60e51b815260040161089a90613500565b60fc80546001600160a01b0319166001600160a01b0384169081179091556040519081527fdd82bdfc28fcc826c53263dc2a2b6083e27e92699ebfee617227e08e21c202f0906020015b60405180910390a15050565b306001600160a01b037f00000000000000000000000000000000000000000000000000000000000000001614156110625760405162461bcd60e51b815260040161089a906133a3565b7f00000000000000000000000000000000000000000000000000000000000000006001600160a01b03166110ab6000805160206136bb833981519152546001600160a01b031690565b6001600160a01b0316146110d15760405162461bcd60e51b815260040161089a90613434565b6110da826124ba565b6110e6828260016124e4565b5050565b6000306001600160a01b037f0000000000000000000000000000000000000000000000000000000000000000161461118a5760405162461bcd60e51b815260206004820152603860248201527f555550535570677261646561626c653a206d757374206e6f742062652063616c60448201527f6c6564207468726f7567682064656c656761746563616c6c0000000000000000606482015260840161089a565b506000805160206136bb83398151915290565b6060600082516001600160401b038111156111c857634e487b7160e01b600052604160045260246000fd5b60405190808252806020026020018201604052801561120157816020015b6111ee612ad5565b8152602001906001900390816111e65790505b50905060005b83518110156108685760fc5484516001600160a01b039091169063118e58bd9086908490811061124757634e487b7160e01b600052603260045260246000fd5b60200260200101516040518263ffffffff1660e01b815260040161126d91815260200190565b60206040518083038186803b15801561128557600080fd5b505afa158015611299573d6000803e3d6000fd5b505050506040513d601f19601f820116820180604052508101906112bd9190613000565b6112d95760405162461bcd60e51b815260040161089a906133ef565b61010160008583815181106112fe57634e487b7160e01b600052603260045260246000fd5b602090810291909101810151825281810192909252604090810160009081206001600160a01b03808a16835290845282822083516101008082018652825490931681526001820154958101959095526002810154938501939093526003830154606085015260049092015480820b820b820b6080850152918204810b810b900b60a083015260ff6201000082048116151560c0840152630100000090910416151560e082015282518390839081106113c657634e487b7160e01b600052603260045260246000fd5b60209081029190910101526113dc8160016135ec565b9050611207565b6097546001600160a01b0316331461140d5760405162461bcd60e51b815260040161089a90613480565b600081116114835760405162461bcd60e51b815260206004820152603c60248201527f53706f727450726564696374696f6e54726561737572793a204d756c7469706c60448201527f6965722073686f756c642062652067726561746572207468616e203000000000606482015260840161089a565b60ff8190556040518181527f4281065eb5f06c35456138eac720e2abcc32ec6454541b255c4ea723db24c8859060200161094b565b6097546001600160a01b031633146114e25760405162461bcd60e51b815260040161089a90613480565b806001600160a01b0381166115095760405162461bcd60e51b815260040161089a90613500565b60fd80546001600160a01b0319166001600160a01b0384169081179091556040519081527f5cc4bdb402e519d4921d6bfaca9c17c16ea3a8e658ff5accd29e6080635562ce9060200161100d565b6097546001600160a01b031633146115815760405162461bcd60e51b815260040161089a90613480565b61158b6000612663565b565b600054610100900460ff166115a85760005460ff16156115ac565b303b155b61160f5760405162461bcd60e51b815260206004820152602e60248201527f496e697469616c697a61626c653a20636f6e747261637420697320616c72656160448201526d191e481a5b9a5d1a585b1a5e995960921b606482015260840161089a565b600054610100900460ff16158015611631576000805461ffff19166101011790555b6116396126b5565b60fc80546001600160a01b03808a166001600160a01b03199283161790925560fd805489841690831617905560fb80549288169290911691909117905560fe84905560ff8390556101008290558015611698576000805461ff00191690555b50505050505050565b60fc5460408051630b4184e760e41b815290516060926001600160a01b03169163b4184e70916004808301926000929190829003018186803b1580156116e657600080fd5b505afa1580156116fa573d6000803e3d6000fd5b505050506040513d6000823e601f3d908101601f19168201604052610f6d9190810190612db5565b60008181526101036020526040812054606091816001600160401b0381111561175b57634e487b7160e01b600052604160045260246000fd5b60405190808252806020026020018201604052801561179457816020015b611781612ad5565b8152602001906001900390816117795790505b50905060005b828110156108685760008581526101016020908152604080832061010390925282208054919291849081106117df57634e487b7160e01b600052603260045260246000fd5b60009182526020808320909101546001600160a01b039081168452838201949094526040928301822083516101008181018652825490961681526001820154928101929092526002810154938201939093526003830154606082015260049092015480820b820b820b6080840152928304810b810b900b60a082015260ff6201000083048116151560c08301526301000000909204909116151560e082015282518390839081106118a057634e487b7160e01b600052603260045260246000fd5b602002602001018190525080806118b69061364f565b91505061179a565b60fc546040516394fd2e5b60e01b81526060916001600160a01b0316906394fd2e5b90610987908590600401613191565b600260c95414156119425760405162461bcd60e51b815260206004820152601f60248201527f5265656e7472616e637947756172643a207265656e7472616e742063616c6c00604482015260640161089a565b600260c955610100546000848152610103602052604090205411156119c45760405162461bcd60e51b815260206004820152603260248201527f53706f727450726564696374696f6e3a204d61782070726564696374696f6e206044820152713337b91032bb32b73a103932b0b1b432b21760711b606482015260840161089a565b604080516001808252818301909252600091602080830190803683370190505090508381600081518110611a0857634e487b7160e01b600052603260045260246000fd5b602090810291909101015260fc546040516394fd2e5b60e01b81526000916001600160a01b0316906394fd2e5b90611a44908590600401613191565b60006040518083038186803b158015611a5c57600080fd5b505afa158015611a70573d6000803e3d6000fd5b505050506040513d6000823e601f3d908101601f19168201604052611a989190810190612db5565b600081518110611ab857634e487b7160e01b600052603260045260246000fd5b60200260200101519050428160a001511015611b2b5760405162461bcd60e51b815260206004820152602c60248201527f53706f727450726564696374696f6e3a204576656e742068617320737461727460448201526b32b21037b91032b73232b21760a11b606482015260840161089a565b611b3533866126e4565b15611b975760405162461bcd60e51b815260206004820152602c60248201527f53706f727450726564696374696f6e3a20557365722063616e206f6e6c79207060448201526b3932b234b1ba1037b731b29760a11b606482015260840161089a565b60fb5460fd5460fe546040516323b872dd60e01b81523360048201526001600160a01b03928316602482015260448101919091529116906323b872dd90606401602060405180830381600087803b158015611bf157600080fd5b505af1158015611c05573d6000803e3d6000fd5b505050506040513d601f19601f82011682018060405250810190611c299190613000565b506000604051806101000160405280336001600160a01b0316815260200187815260200160fe548152602001611c6a611c6160ff5490565b60fe549061285e565b8152600087810b60208084019190915287820b6040808501919091526001606080860182905260809586018590528c8552610101845282852033808752908552838620885181546001600160a01b03919091166001600160a01b03199182161782558987015182860155898601516002830155928901516003820155968801516004909701805460a08a015160c08b015160e08c0151151563010000000263ff0000001991151562010000029190911663ffff000019928b0b60ff9081166101000261ffff199095169c8c0b169b909b1792909217169890981797909717909655610102845282852080548084018255908652848620018d90558c855261010384528285208054928301815585529290932090920180549091168317905560fe549051929350909188917f09709eaec2fcf8f8d0d7f3a8498a9ee322dcedbbb2943e6bafc0ea06532e46ed91611ddd918a918a9190600093840b81529190920b6020820152604081019190915260600190565b60405180910390a35050600160c95550505050565b600260c9541415611e455760405162461bcd60e51b815260206004820152601f60248201527f5265656e7472616e637947756172643a207265656e7472616e742063616c6c00604482015260640161089a565b600260c95580516000906001600160401b03811115611e7457634e487b7160e01b600052604160045260246000fd5b604051908082528060200260200182016040528015611e9d578160200160208202803683370190505b509050600082516001600160401b03811115611ec957634e487b7160e01b600052604160045260246000fd5b604051908082528060200260200182016040528015611ef2578160200160208202803683370190505b509050611eff3384610ac1565b60fc546040516394fd2e5b60e01b81529192506000916001600160a01b03909116906394fd2e5b90611f35908790600401613191565b60006040518083038186803b158015611f4d57600080fd5b505afa158015611f61573d6000803e3d6000fd5b505050506040513d6000823e601f3d908101601f19168201604052611f899190810190612db5565b905060005b84518110156122fc57848181518110611fb757634e487b7160e01b600052603260045260246000fd5b6020026020010151848281518110611fdf57634e487b7160e01b600052603260045260246000fd5b60209081029190910101526000600283838151811061200e57634e487b7160e01b600052603260045260246000fd5b602002602001015160e00151600281111561203957634e487b7160e01b600052602160045260246000fd5b14905083828151811061205c57634e487b7160e01b600052603260045260246000fd5b60200260200101518061206c5750805b6120ce5760405162461bcd60e51b815260206004820152602d60248201527f53706f727450726564696374696f6e3a204f6e6c792077696e6e65722063616e60448201526c0818db185a5b481c995dd85c99609a1b606482015260840161089a565b61010160008784815181106120f357634e487b7160e01b600052603260045260246000fd5b602090810291909101810151825281810192909252604090810160009081203382529092529020600401546301000000900460ff161561218e5760405162461bcd60e51b815260206004820152603060248201527f53706f727450726564696374696f6e3a20557365722068617320616c7265616460448201526f1e4818db185a5b5959081c995dd85c9960821b606482015260840161089a565b600061010160008885815181106121b557634e487b7160e01b600052603260045260246000fd5b60209081029190910181015182528181019290925260409081016000908120338252909252902060048101805463ff000000191663010000001790556003810154909150821561220d57506002810154600060038301555b60fd5460fb546040516301e3366760e01b81526001600160a01b039182166004820152336024820152604481018490529116906301e3366790606401600060405180830381600087803b15801561226357600080fd5b505af1158015612277573d6000803e3d6000fd5b5050505087848151811061229b57634e487b7160e01b600052603260045260246000fd5b6020026020010151336001600160a01b03167f33e1e4350f7b57099d5489c172fc55e9e32d4d3906a6e36710fae5ed9f5eef0f836040516122de91815260200190565b60405180910390a350505080806122f49061364f565b915050611f8e565b5050600160c955505050565b60fc5460408051632ed9457960e21b815290516060926001600160a01b03169163bb6515e4916004808301926000929190829003018186803b1580156116e657600080fd5b6097546001600160a01b031633146123775760405162461bcd60e51b815260040161089a90613480565b600081116123ed5760405162461bcd60e51b815260206004820152603860248201527f53706f727450726564696374696f6e3a205072656469637420416d6f756e742060448201527f73686f756c642062652067726561746572207468616e20300000000000000000606482015260840161089a565b60fe8190556040518181527ffe746232fb608791ea2e8041ea1bf993ace03cfd1f2d1aa3d38a6231b7626f4a9060200161094b565b6097546001600160a01b0316331461244c5760405162461bcd60e51b815260040161089a90613480565b6001600160a01b0381166124b15760405162461bcd60e51b815260206004820152602660248201527f4f776e61626c653a206e6577206f776e657220697320746865207a65726f206160448201526564647265737360d01b606482015260840161089a565b610abe81612663565b6097546001600160a01b03163314610abe5760405162461bcd60e51b815260040161089a90613480565b7f4910fdfa16fed3260ed0e7147f7cc6da11a60208b5b9406d12a635614ffd91435460ff161561251c5761251783612871565b505050565b826001600160a01b03166352d1902d6040518163ffffffff1660e01b815260040160206040518083038186803b15801561255557600080fd5b505afa925050508015612585575060408051601f3d908101601f1916820190925261258291810190613038565b60015b6125e85760405162461bcd60e51b815260206004820152602e60248201527f45524331393637557067726164653a206e657720696d706c656d656e7461746960448201526d6f6e206973206e6f74205555505360901b606482015260840161089a565b6000805160206136bb83398151915281146126575760405162461bcd60e51b815260206004820152602960248201527f45524331393637557067726164653a20756e737570706f727465642070726f786044820152681a58589b195555525160ba1b606482015260840161089a565b5061251783838361290d565b609780546001600160a01b038381166001600160a01b0319831681179093556040519116919082907f8be0079c531659141344cd1fd0a4f28419497f9722a3daafe3b4186f6b6457e090600090a35050565b600054610100900460ff166126dc5760405162461bcd60e51b815260040161089a906134b5565b61158b612938565b60fc5460405163118e58bd60e01b8152600481018390526000916001600160a01b03169063118e58bd9060240160206040518083038186803b15801561272957600080fd5b505afa15801561273d573d6000803e3d6000fd5b505050506040513d601f19601f820116820180604052508101906127619190613000565b6127c05760405162461bcd60e51b815260206004820152602a60248201527f53706f727450726564696374696f6e3a20537065636966696564206576656e74604482015269081b9bdd08199bdd5b9960b21b606482015260840161089a565b506000908152610101602090815260408083206001600160a01b03948516845282528083208151610100808201845282549096168152600182015493810193909352600281015491830191909152600381015460608301526004015480830b830b830b6080830152928304820b820b90910b60a082015260ff6201000083048116151560c08301819052630100000090930416151560e09091015290565b600061286a8284613604565b9392505050565b6001600160a01b0381163b6128de5760405162461bcd60e51b815260206004820152602d60248201527f455243313936373a206e657720696d706c656d656e746174696f6e206973206e60448201526c1bdd08184818dbdb9d1c9858dd609a1b606482015260840161089a565b6000805160206136bb83398151915280546001600160a01b0319166001600160a01b0392909216919091179055565b61291683612968565b6000825111806129235750805b156125175761293283836129a8565b50505050565b600054610100900460ff1661295f5760405162461bcd60e51b815260040161089a906134b5565b61158b33612663565b61297181612871565b6040516001600160a01b038216907fbc7cd75a20ee27fd9adebab32041f755214dbc6bffa90cc0225b39da2e5c2d3b90600090a250565b60606001600160a01b0383163b612a105760405162461bcd60e51b815260206004820152602660248201527f416464726573733a2064656c65676174652063616c6c20746f206e6f6e2d636f6044820152651b9d1c9858dd60d21b606482015260840161089a565b600080846001600160a01b031684604051612a2b919061312f565b600060405180830381855af49150503d8060008114612a66576040519150601f19603f3d011682016040523d82523d6000602084013e612a6b565b606091505b5091509150612a9382826040518060600160405280602781526020016136db60279139612a9c565b95945050505050565b60608315612aab57508161286a565b825115612abb5782518084602001fd5b8160405162461bcd60e51b815260040161089a9190613390565b6040805161010081018252600080825260208201819052918101829052606081018290526080810182905260a0810182905260c0810182905260e081019190915290565b600082601f830112612b29578081fd5b81356020612b3e612b39836135a2565b613572565b80838252828201915082860187848660051b8901011115612b5d578586fd5b855b85811015612b7b57813584529284019290840190600101612b5f565b5090979650505050505050565b600082601f830112612b98578081fd5b8151612ba6612b39826135c5565b818152846020838601011115612bba578283fd5b612bcb826020830160208701613623565b949350505050565b805160038110612be257600080fd5b919050565b8051612be2816136ab565b805161ffff81168114612be257600080fd5b600060208284031215612c15578081fd5b813561286a81613696565b60008060008060008060c08789031215612c38578182fd5b8635612c4381613696565b95506020870135612c5381613696565b94506040870135612c6381613696565b959894975094956060810135955060808101359460a0909101359350915050565b60008060408385031215612c96578182fd5b8235612ca181613696565b915060208301356001600160401b03811115612cbb578182fd5b612cc785828601612b19565b9150509250929050565b60008060408385031215612ce3578182fd5b8235612cee81613696565b915060208301356001600160401b03811115612d08578182fd5b8301601f81018513612d18578182fd5b8035612d26612b39826135c5565b818152866020838501011115612d3a578384fd5b81602084016020830137908101602001929092525090939092509050565b60008060408385031215612d6a578182fd5b8235612d7581613696565b946020939093013593505050565b600060208284031215612d94578081fd5b81356001600160401b03811115612da9578182fd5b612bcb84828501612b19565b60006020808385031215612dc7578182fd5b82516001600160401b0380821115612ddd578384fd5b818501915085601f830112612df0578384fd5b8151612dfe612b39826135a2565b80828252858201915085850189878560051b8801011115612e1d578788fd5b875b84811015612f5f57815186811115612e3557898afd5b8701610160818d03601f1901811315612e4c578a8bfd5b612e54613549565b8a8301518152604083015189811115612e6b578c8dfd5b612e798f8d83870101612b88565b8c83015250606083015189811115612e8f578c8dfd5b612e9d8f8d83870101612b88565b604083015250608083015189811115612eb4578c8dfd5b612ec28f8d83870101612b88565b60608301525060a083015189811115612ed9578c8dfd5b612ee78f8d83870101612b88565b60808301525060c08084015160a083015260e080850151828401526101009150612f12828601612bd3565b90830152610120612f24858201612bf2565b828401526101409150612f38828601612be7565b90830152612f47848401612be7565b90820152865250509287019290870190600101612e1f565b50909998505050505050505050565b60006020808385031215612f80578182fd5b82356001600160401b03811115612f95578283fd5b8301601f81018513612fa5578283fd5b8035612fb3612b39826135a2565b80828252848201915084840188868560051b8701011115612fd2578687fd5b8694505b83851015612ff4578035835260019490940193918501918501612fd6565b50979650505050505050565b600060208284031215613011578081fd5b8151801515811461286a578182fd5b600060208284031215613031578081fd5b5035919050565b600060208284031215613049578081fd5b5051919050565b60008060408385031215613062578182fd5b82359150602083013561307481613696565b809150509250929050565b600080600060608486031215613093578081fd5b8335925060208401356130a5816136ab565b915060408401356130b5816136ab565b809150509250925092565b600080604083850312156130d2578182fd5b50508035926020909101359150565b600081518084526130f9816020860160208601613623565b601f01601f19169290920160200192915050565b6003811061312b57634e487b7160e01b600052602160045260246000fd5b9052565b60008251613141818460208701613623565b9190910192915050565b6020808252825182820181905260009190848201906040850190845b81811015613185578351151583529284019291840191600101613167565b50909695505050505050565b6020808252825182820181905260009190848201906040850190845b81811015613185578351835292840192918401916001016131ad565b602080825282518282018190526000919060409081850190868401855b8281101561325a57815180516001600160a01b031685528681015187860152858101518686015260608082015190860152608080820151890b9086015260a080820151890b9086015260c08082015115159086015260e09081015115159085015261010090930192908501906001016131e6565b5091979650505050505050565b60006020808301818452808551808352604092508286019150828160051b870101848801865b8381101561338257603f1989840301855281516101608151855288820151818a8701526132bc828701826130e1565b91505087820151858203898701526132d482826130e1565b915050606080830151868303828801526132ee83826130e1565b925050506080808301518683038288015261330983826130e1565b9250505060a080830151818701525060c080830151818701525060e0808301516133358288018261310d565b50506101008281015161ffff169086015261012080830151600081900b828801525050610140918201519161336e8682018460000b9052565b50958801959350509086019060010161328d565b509098975050505050505050565b60208152600061286a60208301846130e1565b6020808252602c908201527f46756e6374696f6e206d7573742062652063616c6c6564207468726f7567682060408201526b19195b1959d85d1958d85b1b60a21b606082015260800190565b60208082526025908201527f53706f727450726564696374696f6e3a204576656e7420646f6573206e6f7420604082015264195e1a5cdd60da1b606082015260800190565b6020808252602c908201527f46756e6374696f6e206d7573742062652063616c6c6564207468726f7567682060408201526b6163746976652070726f787960a01b606082015260800190565b6020808252818101527f4f776e61626c653a2063616c6c6572206973206e6f7420746865206f776e6572604082015260600190565b6020808252602b908201527f496e697469616c697a61626c653a20636f6e7472616374206973206e6f74206960408201526a6e697469616c697a696e6760a81b606082015260800190565b60208082526029908201527f53706f727450726564696374696f6e3a20416464726573732030206973206e6f6040820152681d08185b1b1bddd95960ba1b606082015260800190565b60405161016081016001600160401b038111828210171561356c5761356c613680565b60405290565b604051601f8201601f191681016001600160401b038111828210171561359a5761359a613680565b604052919050565b60006001600160401b038211156135bb576135bb613680565b5060051b60200190565b60006001600160401b038211156135de576135de613680565b50601f01601f191660200190565b600082198211156135ff576135ff61366a565b500190565b600081600019048311821515161561361e5761361e61366a565b500290565b60005b8381101561363e578181015183820152602001613626565b838111156129325750506000910152565b60006000198214156136635761366361366a565b5060010190565b634e487b7160e01b600052601160045260246000fd5b634e487b7160e01b600052604160045260246000fd5b6001600160a01b0381168114610abe57600080fd5b8060000b8114610abe57600080fdfe360894a13ba1a3210667c828492db98dca3e2076cc3735a920a3ca505d382bbc416464726573733a206c6f772d6c6576656c2064656c65676174652063616c6c206661696c6564a264697066735822122007013f32cef674d5022d46a8e54365be8ad2def5ebf5571b36c3c1764cbca83f64736f6c63430008040033",
  "linkReferences": {},
  "deployedLinkReferences": {}
}